:020000040800F2
:100000002014002045010008A73600088F2C0008A6
:10001000A5360008CB02000899480008000000003F
:10002000000000000000000000000000B5440008CF
:100030001B03000800000000A93600085D0100084D
:100040005F0100085F0100085F0100082937000810
:100050005F0100085F0100085F0100085F01000800
:100060005F0100085F0100085F0100085F010008F0
:100070005F0100085F0100085F0100085F010008E0
:100080005F0100085F0100085F0100085F010008D0
:100090005F0100085F0100085F0100085F010008C0
:1000A0005F0100085F0100085F0100085F010008B0
:1000B0005F0100085F0100085F0100085F010008A0
:1000C0005F0100089D2C0008912C00085F010008CA
:1000D0005F0100085F0100085F0100085F01000880
:1000E0005F0100085F0100085F0100085F01000870
:1000F0005F0100085F0100085F0100085F01000860
:100100005F0100083D3800085F010008294300082E
:100110005F0100085F010008F5470008014800087A
:10012000CD020008D90200085F010008E5020008BE
:10013000DFF80CD000F02AF800480047B15800085A
:10014000201400200648804706480047FEE7FEE7E7
:10015000FEE7FEE7FEE7FEE7FEE7FEE7FEE7FEE777
:100160002545000831010008D2B201E000F8012B5A
:10017000491EFBD270470022F6E710B513460A4627
:1001800004461946FFF7F0FF204610BD064C074D08
:1001900006E0E06840F0010394E807009847103457
:1001A000AC42F6D3FFF7C8FF6C5E00088C5E000817
:1001B00070B5044600688168C943C9071CD18168CD
:1001C00021F00101816000F05DFD05460FE000BFF8
:1001D00000F058FD401B022809D9A06A40F0100029
:1001E000A062E06A40F00100E062012070BD20687A
:1001F0008068C043C007EBD0002070BD10B501245B
:10020000E103034800F02CFD00B10024204610BD9E
:1002100000080140704700000146014801F09CBE03
:10022000D001002010B5044801F0A8FE042801D038
:10023000012010BD002010BDD001002010B500F03D
:1002400015F8012801D0012010BD074801F0B0FFCA
:10025000040006D14FF40061034801F035FD00B100
:100260000124204610BD0000D001002008B5012067
:100270008DF80000FFF7C2FF10B900208DF80000D4
:100280009DF8000008BD0000134610B50A4601465F
:100290000024034802F036F800B10124204610BDC6
:1002A000D00100207047000038B5002400931346A9
:1002B0000A460146034802F0C5F800B10124204671
:1002C00038BD0000D00100207047FEE7014800F073
:1002D0001FBA000030030020014800F019BA0000E6
:1002E00074030020014800F013BA0000EC02002063
:1002F00030B590F840500124AC40C56B6C60046888
:1003000063604368102B036803D099600068C26083
:1003100030BD9A600068C16030BD704770470022F0
:10032000AFF3008030B50E4B054601205C7A012CFE
:1003300015D8587A00241C54587A03EB8000456085
:100340005D7A03F108002A54587A421C5A72303000
:1003500008703A2048702F208870CC70002030BD83
:1003600010040020F8B50024009490F824202546BD
:10037000012A12D0012280F824204A681F23072A6C
:100380000DD20668776B521E02EB820293409F43A8
:100390000B6893401F43776319E00220F8BD06689D
:1003A0000D2A0AD2376BD21F02EB820293409F4381
:1003B0000B6893401F43376309E0F76A0D3A02EB7D
:1003C000820293409F430B6893401F43F7620A6881
:1003D000072306680A2A0AD3F7680A3A02EB4202A0
:1003E00093409F438B6893401F43F76008E0376951
:1003F00002EB420293409F438B6893401F43376157
:100400000A68102A01D0112A20D1124B02689A42A0
:1004100017D193681B0219D4936843F400039360C7
:100420000968102912D10C490C4A0968B1FBF2F194
:1004300001EB8101490000E0491E00910029FBD138
:1004400004E0816A41F020018162012480F8245097
:100450002046F8BD002401402800002040420F0043
:100460002DE9F04104004FF000057FD0A06A00267E
:1004700028B9E66284F82460204600F081F820461E
:10048000FFF796FEA16AC90600D420B1A06A40F029
:100490001000A0626AE0A16A21F4885141F00201D3
:1004A000A162334923688B42E16904D1B1F5402F41
:1004B00001D14FF40021277B4FF4807C41EA4702B1
:1004C00061680A43A168614508D0012906D000216E
:1004D00094F814E0BEF1010F02D00AE06146F7E79C
:1004E000C7B1A76A47F02007A762E76A47F001078C
:1004F000E7625F6827F469470F435F602368996884
:100500001C4F394011439960A16861450BD0012906
:1005100009D00CE0DFF860E0A7690EEB47370F4326
:1005200047F40061E5E7218A0D05A5F580152168EE
:10053000CB6A23F470032B43CB62216889680F4B8D
:100540001940914208D1E662A16A21F0020141F00E
:100550000101A162BDE8F081A06A20F0020040F034
:100560001000A062E06A40F00100E0620120F1E7C3
:10057000003C0140FDF7E1FF00E0FFFFFE0E1FFF22
:1005800000B585B0002100910191029103910068AE
:100590000E49884218D10E48816941F40071816189
:1005A000816901F400710491816941F00401816164
:1005B0008069694600F00400049002200090032046
:1005C0000190044800F050FA05B000BD002401403D
:1005D00000100240000801402DE9F05F90F8211062
:1005E0000024022903D004218163012485E00168ED
:1005F0000A6822F00E020A6001680A6822F001020D
:100600000A603F4E3E4FB215DFF8F4C0DFF8F090BD
:10061000DFF8ECA0DFF8E8B0DFF8E4E00168783F4D
:1006200013011502ACF1640CA9F15009AAF13C0ABE
:10063000ABF1280BAEF1140E4FF48018B14227D95C
:10064000B9420ED0614512D049451DD0514518D050
:10065000594518D0714501D1424615E0294EB142A5
:1006600001D1012210E0274E1436B14201D11022EF
:100670000AE0244E2836B14206D0224A3C3291424A
:1006800001D11A4600E02A461E49091F0A602BE0E4
:10069000B94213D0614517D0494522D051451DD0EC
:1006A00059451DD0714501D142461AE0B14202D1EF
:1006B0004FF0807215E0134EB14201D1012210E0DB
:1006C000104E1436B14201D110220AE00D4E2836E8
:1006D000B14206D00B4A3C32914201D11A4600E0A9
:1006E0002A46074980394A60012180F821100021FB
:1006F00080F82010416B01B188472046BDE8F09F8B
:10070000800002400804024090F821007047000079
:100710002DE9F05FC16B0A6801680B68046C4FF04B
:10072000040808FA04F8844D844E854FDFF814C29B
:10073000DFF81492DFF814A2DFF814B2DFF814E245
:1007400018EA020F65D05FEA437862D50A6892061C
:1007500003D40A6822F004020A60DFF8F0814FF443
:100760008062016808F1140813011402414524D97C
:10077000A9420DD0B1420FD0B9421AD0614515D06F
:10078000494515D0514501D1120312E0594501D117
:1007900004220EE0714501D140220AE06D4D14356E
:1007A000A94206D06B4A2832914201D11A4600E094
:1007B00022466749091F0A6029E0A94213D0B142C5
:1007C00015D0B94220D061451BD049451BD05145B9
:1007D00002D14FF4800217E0414502D14FF0806210
:1007E00012E0594501D104220EE0714501D14022A9
:1007F0000AE0584D1435A94206D0564A2832914293
:1008000001D11A4600E022464B4908394A60C16AC4
:1008100071E04FF0020808FA04F818EA020F70D0ED
:100820005FEA83786DD50A68920606D40A6822F0DA
:100830000A020A60012180F82110DFF810814FF4CC
:100840000072016808F1140813011402414524D90B
:10085000A9420DD0B1420FD0B9421AD0614515D08E
:10086000494515D0514501D1120312E0594501D136
:1008700002220EE0714501D120220AE0354D1435E7
:10088000A94206D0334A2832914201D11A4600E0EB
:1008900022462F49091F0A6029E0A94213D0B1421C
:1008A00015D0B94220D061451BD049451BD05145D8
:1008B00002D14FF4001217E0414502D14FF000720F
:1008C00012E0594501D102220EE0714501D12022EA
:1008D0000AE0204D1435A94206D01E4A2832914222
:1008E00001D11A4600E02246134908394A60002126
:1008F00080F82010816A00291CD0BDE8F05F08470D
:10090000FFE70825A540154214D01A0712D50A683A
:1009100022F00E020A6090F84020C36B012101FA18
:1009200002F25A60816380F82110002180F82010C3
:10093000016BE0E7BDE8F09F080002401C000240A8
:100940003000024044000240580002406C00024067
:10095000080402401C04024030B560B11A4B026822
:1009600014219A4209D2194B1344B3FBF1F18900C7
:10097000016417490AE0012030BD134B5B42134468
:10098000B3FBF1F1890001640F490839C163022109
:1009900080F82110136843F6F0718B43F0E90114DD
:1009A0002143D0E902452C43214304692143446992
:1009B00021438469214319431160002141630122CD
:1009C00042770177084630BD08040240F8FFFDBFBA
:1009D0000000024070B5044690F820000025012870
:1009E0000CD0012084F8200094F821600020012E12
:1009F00006D084F820000225284670BD022070BD74
:100A0000022684F82160A0632068066826F00106AB
:100A100006602046FFF76CFCE06A00282068016849
:100A200002D041F00E0106E021F0040101602068CF
:100A3000016841F00A0101602068016841F001018C
:100A40000160D9E770B5044600F01CF90546601C4A
:100A500002D004480078044400F014F9401BA0427E
:100A6000FAD370BD1C0000202DE9F84FDFF8C891C3
:100A7000002409F1040A0AF1040B23460F270BF1A5
:100A8000040ED1E00125A54006EA0502AA4276D16E
:100A9000DFF8A8C14E68A6EB0C0866452BD00DDC2C
:100AA000032E34D005DC36B3012E19D0022E2FD1FF
:100AB0001BE0112E16D0122E2AD119E0B8F5881F8E
:100AC00019D006DCB8F5803F15D0B8F5801F1FD1CE
:100AD00011E0B8F5001F0ED0B8F5041F18D10AE0D8
:100AE000CB6815E0CB681B1D12E0CB6808330FE024
:100AF000CB680C330CE08B682BB1012B4FF0080353
:100B000003D0456104E0042302E0056100E0002316
:100B1000FF2A01D8064601E000F104064FEA8405E9
:100B200001D9A5F12005D6F8008007FA05FC28EACE
:100B30000C0803FA05F548EA0508C6F800804D6878
:100B4000ED0070D53E4DAE6946F00106AE61AD696F
:100B500024F0030605F0010500953A4D06EB050C5F
:100B6000DCF80850A607360F07FA06F825EA08054C
:100B7000DFF8D480404503D14FF0000825E052E073
:100B8000DFF8C880404502D14FF001081DE0DFF8D2
:100B9000C080404502D14FF0020816E0DFF8B48073
:100BA000404502D14FF003080FE0DFF8AC8040452C
:100BB00002D14FF0040808E0DFF8A080404502D1E0
:100BC0004FF0050801E04FF0060808FA06F848EA79
:100BD0000508CCF808804D68D9F80060ED034D4653
:100BE00001D5164300E096432E604D68DAF80060A8
:100BF000AD03554601D5164300E096432E604D687F
:100C0000DBF80060ED025D4601D5164300E0964337
:100C10002E604D68DEF80060AD02754601D51643C2
:100C200000E096432E60641C0A681646E2407FF49A
:100C300029AFBDE8F88F000000040140000011104A
:100C4000001002400000014000080140000C01407B
:100C5000001001400014014000180140001C014038
:100C60008068084000D001207047C2680A4201D065
:100C700041617047016170470AB101617047090421
:100C8000FBE7000001488068704700001C0000205E
:100C9000704770472DE9F041044600684169466895
:100CA0000025CF43F9050BD4F143C90508D46FF4EF
:100CB0008071012541612068016841F400410160B3
:100CC000B80508D4F043C00505D421686FF400705E
:100CD00045F002054861780527D4F043C00524D4C7
:100CE00094F83E30628D94F83D00216B202B08D1A2
:100CF0003AB9212810D029280ED0282801D121293D
:100D00000AD021686FF48060486194F83E0045F095
:100D10000405102804D008E0204602F00FFB04E090
:100D20002068016841F400710160380508D4F0437F
:100D3000C00505D421686FF4006045F008054861DE
:100D4000002D07D0206C284320642046BDE8F041E8
:100D500001F0EABFBDE8F0812DE9F041026800240E
:100D60005168C56A90F83E3090F83D60102B1CD059
:100D7000402B1AD0036C002B7ED053694FF028050E
:100D8000DB439F0779D4CF43BF0576D4016C01B113
:100D9000946990F83D3000219D430B467FD0C91ED9
:100DA000516180F83C30BDE8F081946953694FF49B
:100DB0002A07DB435FEAC37C4FF02A4604D0BD42DA
:100DC000F1D0B542EFD010E0CD43AD050DD4C16AEE
:100DD000B94201D1012103E0C16AB14201D1082128
:100DE000C162BDE8F04102F061BA1D0716D4CD43DF
:100DF000AD0513D4416CC9B21161416B11B9826B5D
:100E0000002AD0D0896A19B9816B896A0029CAD0B1
:100E10000068416841F400614160C4E79D0706D461
:100E2000CD43AD0503D4BDE8F04102F093B9E443EE
:100E3000526864074FEA025215D4002AB3DB1A063F
:100E400008D4CA43520505D45A0705D5BDE8F04178
:100E500002F0FEB85A07A6D4C9438905A3D4BDE859
:100E6000F04102F0B3B8002A9DDB5A060CD4CA4305
:100E7000520509D45A0702E00FE023E00FE005D540
:100E8000BDE8F04102F059B85A078CD4C94389052E
:100E900089D4BDE8F04101F0E7BF94696DE755687A
:100EA00025F480655560E243540700D50121120600
:100EB00001D5828900E0028B80F83C3092B2FFF7C6
:100EC000E8FE70E7DC0606D4CC43A40503D4BDE8F5
:100ED000F04102F075BA212E27D0292E25D05C06CC
:100EE00055D4CC43640552D45B0752D590F83D10DD
:100EF000438D002B91D01269436A1A70426A521CCA
:100F00004262428D521E4285428D002A85D12A2995
:100F1000D7D101684A6822F480624A6022210163C5
:100F200080F83D5000F036F93DE71C0623D4CC4351
:100F3000640520D45B0720D590F83D10438D002B2D
:100F4000BFD0436A1B781361426A521C4262428DD1
:100F5000521E4285428D002AB3D12929B1D10168A0
:100F60004A6822F480624A602121016380F83D5082
:100F700000F011F917E75B07A3D4C9438905A0D492
:100F8000418D00299DD0416A097811610AE05B0713
:100F900097D4C943890594D4418D002991D0116912
:100FA000426A1170416A491C4162418D491E418566
:100FB000F9E6704770B504001BD094F83D00002599
:100FC00020B984F83C50204600F0B4F8242084F87E
:100FD0003D002068016821F00101016000F02AFB5A
:100FE0004D4A6168914201D84C4900E04C49884221
:100FF00001D2012070BD4B492368B0FBF1F15E685E
:1010000026F03F060E435E606368934206D94FF4B4
:10101000967359434FF47A73B1FBF3F12368491C7B
:101020001E6A26F03F06314319626168914210D86A
:101030004900401EB0FBF1F2521CC2F30B02042A1D
:1010400001D2042022E0B0FBF1F0401CC0F30B0001
:101050001CE0A368F3B301EBC10202EB0116421ED0
:10106000B2FBF6F2521C42F48042120549D093B30F
:1010700001EBC10202EB0111401EB0FBF1F0401C7C
:10108000C0F30B0040F4804040F400402168CA697E
:101090004CF6FF739A431043C861D4E90701084333
:1010A00021680A6822F0C00210430860D4E90301F5
:1010B00001432068826848F2FF339A4311438160FC
:1010C000D4E9050108432168CA6822F0FF021043F1
:1010D000C86001E00EE016E02068016841F00101FF
:1010E00001602564202084F83D00256384F83E508B
:1010F000002070BD01EB4106421EB2FBF6F2521C0D
:10110000B3E70120C2E701EB4101401EB0FBF1F063
:10111000401CC0F30B00B7E7A086010080841E00CE
:1011200000093D0040420F0070477047704770470C
:101130007047000010B586B0002100910191029126
:1011400003910068104988421BD1104CA06940F0FF
:101150000800A061A069694600F0080004904FF4FF
:101160004060009012200190032003900848FFF790
:101170007BFCE06940F48000E061E06900F48000FD
:10118000049006B010BD000000580040001002405E
:10119000000C014070477047024881680278114492
:1011A000816070471C000020074810B5016841F0BD
:1011B00010010160032000F08FF8002000F006F815
:1011C00000F03EF8002010BD0020024000B50146AE
:1011D00087B00022372000F05FF8372000F04EF88B
:1011E0001348C16941F02001C161C06905A900F03F
:1011F00020000690684600F0FDF900F01BFA0D494A
:101200004000B0FBF1F10D480B4A491E02604160FD
:1012100040F2E7320021C0E90321816001F0EBFBDD
:1012200010B1012007B000BD044801F01DFCF9E732
:101230000010024040420F0000140040B80300209C
:101240000C4808B5816941F001018161816901F0B3
:1012500001010091C16941F08051C161C06900F094
:10126000805000900448416821F0E06141F0007135
:10127000416008BD0010024000000140002809DB69
:1012800000F01F02012191404009800000F1E020A0
:10129000C0F8001170470000F0B40E4B1B680C46FC
:1012A000C3F30223C3F10705042D00D90425191D3A
:1012B000072901D2002300E0DB1E012606FA05F112
:1012C000491E214099409E40761E16403143F0BC95
:1012D00003F0E3BA0CED00E0064900F007020868ED
:1012E0004FF6FF03184040EA0220034A104308600B
:1012F000704700000CED00E00000FA0501490120F4
:101300000862704700000E4210B52CA401461DCCA7
:1013100086B08DE81D002DA02D4C006804900020A3
:1013200004292FD00BDC01292FD0022928D100F06D
:1013300091F96168C1F38131491C49001EE0082917
:1013400020D010291CD161682268D20118D5C1F3C0
:101350008342C9031DF8020009D5616804AAC1F3DC
:101360004041515C1B4AB2FBF1F1484301E01A498C
:1013700048436168490203D440000321B0FBF1F007
:1013800006B010BD00F076F9FAE7226AC2F3012137
:10139000012903D1920701D5C803F1E7022905D13C
:1013A000626A920702D549F64040E9E70329E7D18E
:1013B00021688903E4D54FF22440E1E702030405E4
:1013C000060708090A0B0C0D0E0F10100102000091
:1013D0000010024000127A0000093D002DE9F84398
:1013E00005460078354CC00754D0E0690026C0009F
:1013F00008D4E06940F08050E061E069012600F027
:10140000805000902E480168C90512D401688046BA
:1014100041F480710160FFF735FC074605E000BF2D
:10142000FFF730FCC01B642823D8D8F80000C005A3
:10143000F6D5206A10F4407021D0A98801F44071DB
:1014400081421CD0206A1F49012220F440700A60AA
:1014500000220A602062C00711D0FFF713FC074684
:1014600041F2883808E000BFFFF70CFCC11B414582
:1014700002D90320BDE8F883206A8007F4D5206AEA
:10148000696820F44070084320621EB1E06920F0D2
:101490008050E0612878800705D56068A96820F44D
:1014A0004040084360602878C00605D560686969D7
:1014B00020F48000084360600020DBE70010024059
:1014C00000700040400442422DE9F0470F460500FD
:1014D00061D0434E306800F00700B84209D230684E
:1014E00020F0070038433060306800F00700B84251
:1014F00051D128683B4C810712D5400703D560685D
:1015000040F4E06060602878000703D5606840F42C
:10151000605060606068A96820F0F0000843606077
:101520002878C00728D06868012810D021680228D0
:1015300010D0890700292EDA616821F003010143E8
:101540006160FFF79FFB804641F288390DE021681A
:101550008903EFE78901EDE7FFF794FBA0EB0801B2
:10156000494502D90320BDE8F0876068696800F04A
:101570000C00B0EB810FEFD1306800F00700B842EB
:101580000BD9306820F0070038433060306800F035
:101590000700B84201D00120E5E72878400705D5CB
:1015A0006068E96820F4E06008436060287800071C
:1015B00006D56068296920F4605040EAC100606087
:1015C00000F058F86168084AC1F30311515CC84043
:1015D0000649086006480068FFF7F8FD0020C2E7EA
:1015E0000020024000100240925D00082800002008
:1015F000200000200F2202600C4A536803F003030E
:101600004360536803F0F0038360536803F4E063BE
:10161000C36052684FF4E06303EAD20202610448F7
:10162000006800F0070008607047000000100240EA
:10163000002002400448054900684968044AC1F393
:101640000221515CC8407047280000200010024071
:10165000A25D00080448054900684968044AC1F3CE
:10166000C221515CC8407047280000200010024091
:10167000A25D000812A185B00FC98DE80F0014A06B
:10168000144A006804905168134801F00C03042BBD
:1016900010D0082B0ED1C1F38343C9031DF80300FA
:1016A0000AD5516804AAC1F34041515C0A4A50432B
:1016B000B0FBF1F005B0704708494843FAE7000075
:1016C00002030405060708090A0B0C0D0E0F101083
:1016D000010200000010024000127A0000093D00E3
:1016E0002DE9F84F040070D02078C04DC00749D0D4
:1016F0006868C0F38100012807D06868C0F38100E2
:10170000022809D16868C00306D52868800339D546
:1017100060680028E7D035E06068B0F5803F0BD006
:1017200010B1B0F5A02F11D0286820F480302860C7
:10173000286820F4802002E0286840F48030286087
:10174000606890B1FFF79EFA06460AE0286840F408
:1017500080202860F0E700BFFFF794FA801B642820
:1017600073D828688003F7D50CE0FFF78BFA06469C
:1017700005E000BFFFF786FA801B6428F0D82868D0
:101780008003F7D420789A4E80074FF001094FF07C
:10179000000839D5686810F00C0F07D06868C0F3EE
:1017A0008100022809D16868C00306D42868800730
:1017B00014D52069012808D110E02069B0B1C6F81D
:1017C0000090FFF75FFA074605E00AE1FFF75AFAD3
:1017D000C01B0228C4D828688007F7D5286861692B
:1017E00020F0F80040EAC10028600DE0C6F8008053
:1017F000FFF748FA074604E0FFF744FAC01B022847
:1018000023D828688007F7D4207800072CD579489A
:10181000A169D9B1C0F80090FFF734FA074604E097
:10182000FFF730FAC01B02280FD8686A8007F7D587
:1018300071484FF4FA510068B0FBF1F0009000BF1E
:101840000098411E0091FAD20EE080E0C0F80080BE
:10185000FFF718FA074604E0FFF714FAC01B022846
:1018600075D8686A8007F7D42078400760D5E869A2
:101870000027C00008D4E86940F08050E861E869BA
:10188000012700F0805000905C480168C90513D41E
:101890000168834641F480710160FFF7F3F98246E5
:1018A00006E000BFFFF7EEF9A0EB0A0064284ED86F
:1018B000DBF80000C005F5D5E06801280AD008B1C2
:1018C000052813D0286A20F001002862286A20F039
:1018D000040002E0286A40F001002862E06841F25A
:1018E000883B98B1FFF7CEF982460BE0286A40F0BA
:1018F00004002862EEE700BFFFF7C4F9A0EB0A017D
:1019000059455AD8286A8007F6D50CE0FFF7BAF98E
:10191000824605E0FFF7B6F9A0EB0A0159454CD81D
:10192000286A8007F6D41FB1E86920F08050E8618A
:10193000E06988B36968C1F38101022944D00228B3
:10194000C6F8608004D0FFF79DF9044638E034E023
:10195000FFF798F9074604E0FFF794F9C01B022847
:101960002BD828688001F7D4206AB0F5803F05D1D4
:101970006868A16820F4003008436860D4E9080171
:101980000843696821F4741108436860C6F86090E0
:10199000FFF778F9044606E025E000BFFFF772F98B
:1019A000001B022809D828688001F7D51BE000BF7A
:1019B000FFF768F9001B022802D90320BDE8F88F61
:1019C00028688001F4D40EE00128F7D06868226A04
:1019D00000F48031914204D1616A00F470108842B1
:1019E00001D00120EAE70020E8E7000000100240F3
:1019F0000000424280044242280000200070004063
:101A00007047704710B5044600680168C90716D0D2
:101A10004168C90713D040684007204607D5FFF743
:101A2000F0FF21686FF004004860042002E0FFF737
:101A3000E7FF0120607421686FF00100486010BD6D
:101A400070B5040003D0607C002610B105E00120D1
:101A500070BD2674204600F043F8022060742046D2
:101A600000F010F9042578BB204601F027FE58BB92
:101A70002068416821F007014160A06820B1174843
:101A8000016821F0010101601448001F0168A2688B
:101A900021F46071114301606068411C04D1012090
:101AA000FFF732FC80B1401E21688A6822F00F02E5
:101AB00042EA10428A602168CA6860F30F02CA6075
:101AC000204601F015FE08B16574C0E7E6730120F9
:101AD0006073A0736074002070BD0000306C004023
:101AE00008B50068084988420DD1FFF707FC074890
:101AF000C16941F00061C161C069054900F0006041
:101B000000900120086008BD00280040001002403D
:101B10003C0442422DE9F0410D4604003BD0C5B3E0
:101B2000207C01283AD04FF0010884F81080022070
:101B30006074E87872B301F0B8FDE073687801F082
:101B4000B4FD6073A87801F0B0FDA073C2B2617BF0
:101B5000E07B01F006FE20732870204601F0F1FDC5
:101B60004FF46161B0FBF1F1002518292DD918223D
:101B7000B1FBF2F1A1EB011101EB4101C1EB01114C
:101B800000EBC1163146204601F02AFE0427C8B9F1
:101B90000BE000E004E00120BDE8F0810220FBE75B
:101BA000E07368786073A878CFE7204601F0C2FD43
:101BB000411C0AD0B04208D206490144204601F037
:101BC000FBFD10B167742574E5E784F81180257476
:101BD0000020E1E7805101002DE9F0410D460400AD
:101BE00024D01DB3207C012823D04FF0010884F8B5
:101BF0001080022060742878EAB101F056FD4FF49D
:101C0000616100FB01F6687801F04FFDC0EB001048
:101C100006EB8006A87801F048FD351829462046D5
:101C200001F0DEFD0026042710BB0FE00120BDE817
:101C3000F0810220FBE74FF4616148436978C1EB12
:101C4000011100EB8100A9784518E7E72068416899
:101C500021F005014160204601F06CFD411C0AD0D5
:101C6000A84208D206490144204601F0A5FD10B162
:101C700067742674DAE784F8118026740020D6E7AA
:101C80008051010070B504000AD02068416821F03D
:101C900008014160FEF7F6FF05464FF47A7608E04A
:101CA000012070BDFEF7EEFF401BB04201D90320BA
:101CB00070BD206840680007F4D5002070BD10B5E5
:101CC000FEF7A8FA10BD00002DE9FE4304460320EC
:101CD0000F4684F83400606C03285AD0B7F5805F53
:101CE00057D04FF4006600254FF08068B7421CD1F2
:101CF000009501950021206801F09CFD800121D410
:101D00006946204602F057F998BB0198400332D546
:101D1000B4F850000104206801F0C8FD48BB02215E
:101D2000206822E0A06B284327E01FB1A06B40F0A1
:101D3000006022E0009501950021206801F07AFD05
:101D4000800101D53546EDE76946204602F033F9BA
:101D500078B90198C0030ED5B4F85000010420688A
:101D600001F0A4FD28B90021206801F0ECFD002855
:101D7000D8D00546D6E74546D4E7A063A06B012539
:101D800058B121680C48886384F834500120BDE8BC
:101D9000FE83A06B40F08050EFE7211DD4E90506DB
:101DA0000EC90097CDE90106206801F04DFD84F8C9
:101DB00034500020EBE70000FF05400070470000B2
:101DC000F0B5426E920F0A70426EC2F383624A709F
:101DD000426EC2F301628A70426E120CCA70B0F891
:101DE0006420120A0A7190F864204A71826E120D02
:101DF000CA80826EC2F303420A72B0F86820C2F34E
:101E0000C0324A72B0F86820C2F380328A72B0F8E9
:101E10006820C2F34032CA72B0F86820C2F30032C0
:101E20000A7300264E73426C4FF40075012462B1B0
:101E3000012A3AD0026847499163816B41F0805191
:101E4000816380F834400120F0BDB0F86820C36E93
:101E50009205120D42EA93720A61C26EC2F3C26227
:101E60000A75C26EC2F302624A75C26EC2F3425272
:101E70008A75C26EC2F38242CA75C26EC2F3C232A2
:101E80000A760A69521C42650B7E03F007039B1C0D
:101E90009A4042650B7A03F00F0704FA07F3836553
:101EA0005B0A5A43C0E917250EE090F86820C36E1C
:101EB0009206920A42EA13420A610A69521C92028D
:101EC0004265C0E91652056630F86C2FC2F38032C5
:101ED00001F8192F0288C2F3C6124A70027802F084
:101EE0007F028A704268D20FCA704268C2F34172A0
:101EF0000A714268C2F382624A714268C2F3835235
:101F00008A714268C2F34052CA710E724268C2F3CB
:101F100000424A728288C2F3C0328A728288C2F357
:101F20008032CA728288C2F340320A738288C2F356
:101F300000324A738288C2F381228A738288C2F394
:101F40000122CA730079C0F3460008744C74002063
:101F5000F0BD0000FF054000426C0A60826C4A60E0
:101F6000C26C8A60026DCA60426D0A61826D4A610C
:101F7000C26D8A61006EC8610020704770B504466A
:101F8000B0F8500000250104206801F0E6FD18B10A
:101F9000A16B0143A16304E00021206801F04AFC29
:101FA0000546C5F3432070BDF8B5056B04460068CF
:101FB000416B09041BD5290719D5D4E90A56002E0F
:101FC00014D00027206801F059FC05F8010B010A24
:101FD00005F8011B010C05F8021B000E361F7F1CC3
:101FE00005F8010C082FEDD3C4E90A56F8BD416B82
:101FF0004FF00006C9054FF0010744D5390281634F
:102000002068C16B4CF23A329143C1632068C16AC7
:1020100021F00101C16228071DD515F0220F09D05A
:10202000206801F0CBFD28B1A16B0143A1632046DC
:10203000FFF7C4FE216840F23A50886384F8347098
:102040002663A80703D0204600F0F4F9F8BD204627
:1020500000F0F4F9F8BD2806FCD5A80609D52068DB
:1020600001F0ACFD28B1A16B0143A1632046FFF74D
:10207000A5FEA807EED12068C16A21F00801C1625F
:1020800084F83470E3E7416B490424D5290722D54D
:10209000D4E90856002EDDD05FF0000715F8010BDB
:1020A000009015F8011B361F40EA0120009015F83A
:1020B000021B40EA0140009015F8011C40EA016053
:1020C00000906946206801F0ECFB7F1C082FE5D3E7
:1020D000C4E90856F8BD416B40F23A221142F9D0EA
:1020E000416B890703D5A16B41F00201A163416BEC
:1020F000090703D5A16B41F00801A163416B890673
:1021000003D5A16B41F02001A163416BC90603D542
:10211000A16B41F01001A163416B890503D5A16B4F
:1021200041F00801A16340F23A7181632068C16BFC
:1021300040F23A329143C163206801F03FFDA16B48
:102140000843A063280706D584F834702663204628
:10215000FFF734FEF8BD2806FCD515F0300F0CD083
:10216000E16B11484863E06BFEF736FA0028F1D0C6
:10217000E06BBDE8F84001F0FCBEA8070CD0216C74
:102180000A484863206CFEF727FA0028E2D0206C4A
:10219000BDE8F84001F0CBBEA66384F83470266336
:1021A0002046FFF78CFDF8BD733F00082F3F000865
:1021B00070B504000ED094F83400002518B92577C6
:1021C000204600F03BF8032084F83400204600F05D
:1021D0000BF808B1012070BDA5632563012084F8C8
:1021E0003400002070BD0000FEB5002504467620B6
:1021F0000095CDE9015029460B460A46206801F0BA
:1022000023FB08B10120FEBD0B4E46F8A05F2068FD
:1022100001F02CFB01253560204601F0ADFF20B90F
:10222000204601F032FF0028EDD084F83450A16B35
:102230000143A163E6E7000000003042F0B585B03D
:1022400000260546009601960296039600682749E7
:10225000884249D12649486940F48060486148690C
:1022600000F480600490886940F0100088618869FB
:1022700000F010000490886940F0200088618869AF
:10228000022400F0200004904FF4F850CDE900043F
:102290000327694603971748FEF7E6FB0420CDE9BC
:1022A0000004694603971448FEF7DEFB144C1348FC
:1022B000C4E900068020C4E902608000206180003B
:1022C000C4E905062046E661FEF746FB08B1FEF7C5
:1022D00025F82C64EC630022114631206562FEF77C
:1022E000DBFF3120FEF7CAFF05B0F0BD00800140E2
:1022F000001002400010014000140140440402405C
:10230000EC0200202DE9F04786B01F460446154632
:1023100039B194F83400012807D0022006B0BDE896
:10232000F087A06B40F0006008E00020A063E36D40
:10233000EA199A4204D9A06B40F00070A0636FE0E4
:10234000032284F8342022688246D0622268D36B4C
:1023500040F22A363343D363236C324A4FEA47298B
:102360009A62236C304A1A63226C4FEA99035063D5
:1023700020680A46266C00F180013046FEF72AFBF1
:10238000DFF8A880012660B12068C16B21F4957147
:10239000C1632168C1F83880A06B40F08040A06321
:1023A00011E023480660606C012800D06D024FF4F4
:1023B0000071206801F0AEFA40B12268C2F838809E
:1023C000A16B0143A16384F8346029E04FF0FF3032
:1023D000CDE900099020029002200596CDE9030A7C
:1023E000D1466946206801F00FFA012F06D98220F4
:1023F00020632946206801F021FB05E0812020634D
:102400002946206801F033FB002887D02268C2F8F3
:102410003880A16B0143A16384F83460C4F8309024
:1024200001207BE7ED3E0008913E0008FF054000DB
:102430008C05304210B5FDF735FF10BD10B5FDF726
:1024400043FF10BD2DE9FF4F8DB016460D460446E3
:10245000FEF718FC0B903DB194F83400012807D02A
:10246000A06B40F000500DE0A06B40F0006009E070
:102470000027A7631098E16D3044884204D9A06B0F
:1024800040F00070A0638BE0032084F834002068E3
:10249000C762606C012800D076024FF4007120689A
:1024A00001F038FADFF864B1012140B12368C3F8C4
:1024B00038B0A26B0243A26384F8341070E04FF08E
:1024C000FF30039010988946400204909020CDE997
:1024D0000507CDE90771BA4603A9206801F094F910
:1024E0001098012806D9202020633146206801F089
:1024F0007FFB05E0102020633146206801F091FB4E
:102500005FEA000806D02168C1F838B0A06B40EA45
:10251000080071E0049E27E0406B40041CD5DEB14A
:102520005FF0000715F8010B009015F8011B361F2E
:1025300040EA0120009015F8021B40EA014000909B
:1025400015F8011C40EA016000906946206801F01E
:10255000A8F97F1C082FE5D3FEF794FB0B99411ACD
:102560001A98814220D2F8B12068416B40F21A32A9
:102570001142D1D0416BC90523D51099012920D929
:10258000616C03291DD001F019FBD0B12268C2F89B
:1025900038B0A16B0143A16384F83490C4F830A033
:1025A000012011B0BDE8F08F2168C1F838B0A06BF0
:1025B00040EA0800A06384F83490C4F830A00320F7
:1025C000EFE72068416B090705D5C0F838B0A06B6C
:1025D00040F0080010E0416B890705D5C0F838B01D
:1025E000A06B40F0020007E0416BC90606D5C0F8B9
:1025F00038B0A06B40F01000A063CDE740F23A5134
:10260000816384F834900020CBE70000FF05400090
:10261000704790F85100704738B50446006842682A
:102620008168C9434B0606D5CB0704D1D3435B066B
:1026300001D4216C05E08B0708D4D3431B0605D4D5
:10264000616C01B02046BDE8304008478B0601D5DB
:102650004B0646D4D3439B0643D44B060AD494F886
:102660005130032B3ED0636D43F004036365C368B0
:1026700083680093890609D4616D41F001016165A9
:1026800081680091016821F040010160606D0028BF
:1026900027D02068416821F0E0014160012084F8E2
:1026A0005100900722D02068416821F00301416069
:1026B000104DE06C40B14563E06CFDF78DFF18B143
:1026C000606D40F040006065A06C002809D0456353
:1026D000A06CFDF781FF002803D0606D40F0400042
:1026E000606538BDC1688068009038BD2046FFF73E
:1026F0008FFF38BD3543000870B5040005D00025B4
:10270000A56294F8510010B106E0012070BD84F874
:102710005050204600F02EF8022084F85100206826
:10272000016821F040010160D4E901010843D4E9C6
:1027300003121143084361690843218B01F40071BE
:102740000843E1690843216A0843A16A08432168F4
:102750000860A069042101EA1040216848602068EF
:10276000C16921F40061C1616565012084F85100EF
:10277000002070BD2DE9F04186B00024064600948B
:1027800001940294039400682C49884252D12C4849
:10279000C16941F40041C161C16901F40041049182
:1027A000816941F0080181618069264D00F00800CF
:1027B0000490282000900220019003200390694695
:1027C0002846FEF751F94FF01008CDE9008469461C
:1027D00028460294FEF748F91C4D1B488027C5E99E
:1027E0000004C5E902472C616C61AC612846EC61CC
:1027F000FEF7B2F808B1FDF791FDF5646E62144D75
:102800001148C5E902472C616C61AC611430EC6180
:10281000C5E900082846FEF79FF808B1FDF77EFDE0
:10282000B5640022114633206E62FEF735FD332079
:10283000FEF724FD06B0BDE8F0810000003C00403A
:1028400000100240000C0140080402403003002048
:10285000740300202DE9F84F044690F8500000273B
:102860001D461646894601280DD04FF0010B84F80D
:1028700050B0FEF707FA804694F85100BA46012896
:1028800004D002278EE00220BDE8F88FB9F1000FD6
:102890007DD0002E7BD0032084F85100C4F854A0D2
:1028A000C4F83090A686E686C4F838A0A4F83CA008
:1028B000A4F83EA0C4F844A0C4F840A0A068B0F5B5
:1028C000004F04D12068016841F480410160206814
:1028D0000168490603D4016841F040010160E068E5
:1028E000B0F5006F606803D030B3012E24D040E013
:1028F00008B1012E1CD1206B21680088C86006E059
:1029000020688168890709D5216B0988C160206B1F
:10291000801C2063E08E401EE08609E0FEF7B2F9DD
:10292000A0EB0800A84202D3681C01D031E07DB3BF
:10293000E08E0028E4D11FE0206B21680078087346
:1029400006E020688168890709D5216B0978017341
:10295000206B401C2063E08E401EE08609E0FEF7FD
:1029600091F9A0EB0800A84202D3681C01D010E046
:1029700075B1E08E0028E4D142462946204601F098
:10298000E1FC08B120206065A06820B107E008E004
:10299000FFE7032706E02068C16880680090606D4B
:1029A00000B1012784F851B084F850A038466BE795
:1029B0007047704770B590F83C20012A19D0012467
:1029C00000F83C4F0222427050F83C3C5A689D6827
:1029D00022F070060A684968324325F080052943D1
:1029E0005A6050F83C2C91604470002101700846F8
:1029F00070BD022070BD10B5040003D094F83D00F6
:102A000010B107E0012010BD002084F83C002046F2
:102A100000F00CF8022084F83D00211D206801F030
:102A2000F5FE012084F83D00002010BD08B50068C7
:102A30000B49884212D10B48C16941F01001C161B4
:102A4000C069002200F01000009011463620FEF709
:102A500023FCBDE808403620FEF710BC08BD00008E
:102A600000100040001002400168CA6842F00102F4
:102A7000CA600068816801F00701062903D0016877
:102A800041F00101016000207047704770B50446B5
:102A9000006801694FF00005C943890715D4C16872
:102AA000C943890711D4E91E0161012020772068FC
:102AB00080698007204602D0FFF7E7FF04E000F0BE
:102AC00098F8204600F096F8257720680169C943F8
:102AD000490717D4C168C943490713D46FF00401EB
:102AE0000161022020772068806910F4407F204631
:102AF00002D0FFF7CAFF04E000F07BF8204600F0A8
:102B000079F8257720680169C943090716D4C16897
:102B1000C943090712D46FF008010161042020772E
:102B20002068C0698007204602D0FFF7AEFF04E0AE
:102B300000F05FF8204600F05DF825772068016915
:102B4000C943C90617D4C168C943C90613D46FF075
:102B500010010161082020772068C06910F4407FCF
:102B6000204602D0FFF791FF04E000F042F8204633
:102B700000F040F8257720680169C943C90708D1EA
:102B8000C168C943C90704D1891E0161204600F00C
:102B900033F820680169C943090609D4C168C943EB
:102BA000090605D46FF0800101612046FFF700FFA0
:102BB00020680169C943490609D4C168C943490667
:102BC00005D46FF040010161204600F05FF82068F5
:102BD0000169C94389060BD4C168C943890607D472
:102BE0006FF0200101612046BDE87040FFF7E1BEB3
:102BF00070BD70477047000010B5044600681F495B
:102C0000884201D1FEF7C8FA20681D4CA04233D19A
:102C100004211C48FEF729F81B4841784288002906
:102C200041680DD091421ED3A1F5AF71416001788A
:102C3000491EC9B2017002291CD20021417019E05D
:102C400091420AD801F5AF7141600178491CC9B2BF
:102C5000017014290ED90121F0E7017801EBC103BD
:102C600003EB011103E001786FF01803594302EB05
:102C7000410141804068E06210BD00000014004046
:102C800000100040000C0140000000207047FEE7EB
:102C90000148FDF7FFBF0000680100200148FEF772
:102CA0005BB800006801002010B5406A90F83D3024
:102CB000426B00219162826B91620268146824F475
:102CC000806414604185426B5163826B516302687A
:102CD000146824F00104146090F83D202024602A38
:102CE0000BD0282232EA03030FD080F83D4080F851
:102CF0003E1000BFFEF75DF910BD80F83D4080F842
:102D00003E100164FDF7C4FF10BD03681C6844F069
:102D100001041C6003681C6844F480641C60016347
:102D200080F83D20E6E7000070B5044690F83D00CD
:102D300094F83E10102906D1222804D121680A688F
:102D400022F400620A60282131EA00024FF00005F7
:102D50004FF0200626D021684968090503D4602871
:102D600001D084F83D60256384F83E5020684168B6
:102D7000090537D5416821F400614160606B38492D
:102D800090F82120012A11D04163606BFDF724FCEB
:102D900038B32068016821F00101016084F83D60CA
:102DA000606B1CE0256384F83D10DFE7A06B416396
:102DB000A06BFDF711FCA0B120684169C943490629
:102DC00005D40069616A0870606A401C606220680E
:102DD000016821F00101016084F83D60A06B416B46
:102DE000884710E094F83D10602923D04169C94319
:102DF000490605D40069616A0870606A401C606217
:102E00002046FEF7D6F894F83D00216C490710D50E
:102E100028280ED12068416821F4E0614160114802
:102E2000E062256384F83D6084F83E502046FEF75A
:102E30007BF970BD84F83D6025644169C94349064A
:102E400005D40069616A0870606A401C606220688D
:102E5000016821F0010101602046FDF719FFD2E76A
:102E6000A92C00080000FFFF10B5C26A438D01685D
:102E7000042B06D0438D032B08D0438D022B1DD08D
:102E800012E04A6822F480624A600CE04B6823F446
:102E900080634B60042A06D0022A04D001680A68C5
:102EA00022F480620A6001680969426A1170416A0D
:102EB000491C4162418D491E418510BD012A30D017
:102EC000102A2ED0042A30D0022A2ED00A6842F4CA
:102ED00000720A6001680969426A1170416A491CFE
:102EE0004162428D521E4285026812690A70416A2F
:102EF000491C4162418D491E418501684A6822F49E
:102F000040724A60202180F83D1090F83E20002158
:102F1000402A80F83E100CD012210163FEF705F91B
:102F200010BD0A6822F48062D3E70A6842F4806226
:102F3000CFE70163FEF7FBF810BD10B590F83D1028
:102F4000222914D1418D032912D901680969426AE5
:102F50001170416A491C4162418D491E4185418D74
:102F6000032904D10068416821F48061416010BDEB
:102F7000C26A022AFBD0012901D00029F7D10168D9
:102F80000A6822F480620A6001684A6822F4E062FA
:102F90004A6001680969426A1170416A491C4162CC
:102FA000418D491E4185202180F83D1090F83E203A
:102FB0000021402A80F83E1004D012210163FEF760
:102FC000B4F810BD0163FEF7B2F810BD10B5C26AC7
:102FD00090F83D1021290BD1418D51B1416A026811
:102FE00009781161416A491C4162418D491E418540
:102FF00010BD20230021082A13D0202A11D012F559
:10300000803F0ED00268546824F4E06454601122BA
:10301000026380F83E1080F83D3000BFFEF786F86E
:1030200010BD0268546824F4E064546002681468B7
:1030300044F400741460016380F83D3090F83E2041
:1030400080F83E10402AE9D1FEF772F810BD00006A
:1030500010B590F83D1090F83E30C26A048D64B10E
:10306000212903D0402B21D122291FD1418DA1B389
:1030700090F83E10402937D046E02129F2D1202394
:103080000021082A13D0202A11D012F5803F0ED03B
:103090000268546824F4E06454601122026380F8EA
:1030A0003E1080F83D3000BFFEF740F810BD0268CA
:1030B000546824F4E06454600268146844F40074B2
:1030C0001460016380F83D3090F83E2080F83E1097
:1030D000402AE9D1FEF72CF810BDFFE700684168EF
:1030E00021F480614160F7E7016DC1B1016D0129F3
:1030F00022D0016D0229EFD190F83D10222923D072
:1031000090F83D102129E7D1416A026809781161E0
:10311000416A491C4162418D491E4185DCE7C16C11
:103120000129816C02D0C1F3072107E00268C9B20E
:103130001161016D891C05E0816CC9B202681161E1
:10314000016D491C0165C7E70068016841F48071A1
:103150000160C1E778B590F83E50C26A046B90F800
:103160003D6000230168222E73D1066D0EB9402DFB
:103170006FD0056D1DB90569B5F5404F1BD0458D64
:1031800095B3468D484D012E20D0448D022C4DD054
:103190000C6844F480640C6001684C68240579D59F
:1031A000AA4273D0012A71D0082A6FD0102A6DD09C
:1031B000202A6BD06EE04A698A6900920A6842F45C
:1031C00080720A60016D491C016578BDAA4214D164
:1031D0000A6822F480620A6001684A68120504D510
:1031E0000A6822F4806217E0FFE74A698A69009260
:1031F0000A6842F400720A6050E0082A10D0202ABF
:103200000ED0122C0AD0042A03D0022A01D0102A90
:10321000E6D10A6842F480620A603BE0012ADFD00E
:103220000A6822F480620A600168DEE7042A11D08D
:10323000022A0FD0102A0DD00C6844F400640C60F0
:1032400001684C698C6900940C6824F480640C60FB
:1032500008E025E00C6844F480640C6001684C6967
:103260008969009101684C68240517D5AA4207D0E6
:10327000012A05D0082A03D0102A01D0202A0DD116
:103280004A6842F480524A6008E0FFE74A6842F424
:1032900080524A6001684A6989690091036578BD76
:1032A00048698869009078BD0000FFFF90F83E10E3
:1032B000402910D00169B1F5804F19D0016DB1B32B
:1032C000016D012910D1416C5FF0F10201F44071F0
:1032D00042EAD11106E0016D0029416C05D0C9B266
:1032E00041F0010100680161704701F0FE01F9E75A
:1032F00090F83D102129416C07D0C9B241F001017D
:1033000002681161416B31B902E001F0FE01F7E79B
:10331000826B002AE8D0896A19B9816B896A002911
:10332000E2D00068416841F4006141607047FFE706
:10333000416CF02201F44071CAE700002DE9F04130
:1033400090F83D40C26A002320261C4F01686FF4AC
:103350008065082A01D0202A01D1282C04D0212CF4
:1033600016D04D61BDE8F081C7624A6822F4E06280
:103370004A6001684D6101680A6822F480620A604F
:10338000036380F83D6080F83E30FDF7CDFEE9E74D
:10339000C7622122026380F83D6080F83E304A68AF
:1033A00022F4E0624A6001684D6101680A6822F413
:1033B00080620A60FDF7EFFED4E700000000FFFF27
:1033C000F8B590F83D6004460068416821F4E0617A
:1033D00041602068002541690091016841F00101C8
:1033E00001602068016821F4806101602068416803
:1033F000090520D5474F222E48D02A2E46D0616B92
:10340000096849686185618D19B1216C41F0040139
:103410002164416821F400614160606BFDF774F93B
:10342000012808D0606B4763606BFDF7D5F810B1D9
:10343000606B416B8847608D08B320684169C94360
:10344000490708D40069616A0870606A401C6062BC
:10345000608D401E608520684169C943490608D4D3
:103460000069616A0870606A401C6062608D401E7D
:103470006085608D18B1206C40F004002064206CE1
:1034800000B32046BDE8F840FFF74EBCA16B0968C9
:1034900049686185618D19B1216C41F00401216495
:1034A000416821F400614160A06BFDF72DF901280E
:1034B000C1D0A06B4763A06BFDF78EF80028BAD08F
:1034C000A06BB6E72A2E06D12563282084F83D009C
:1034D0002046FDF75FFE94F83D10202028290DD0EE
:1034E000216B222901D0222E07D1256384F83D00CB
:1034F00084F83E502046FDF74DFEF8BD0649E162D6
:10350000256384F83D0084F83E502046FDF70CFE0C
:10351000F8BD0000A92C00080000FFFF3EB5002404
:103520000D480094019402940A4984600160047378
:103530000475012505614FF460214460C161FCF709
:103540008FFF1020CDE90005694602940248FCF780
:1035500009FF3EBD002401403801002010B5044998
:103560000448FCF7DCFE0249491E087010BD00004B
:1035700013000020585E000870B586B000241F4874
:103580000094019402940394816941F004018161E3
:10359000816901F004010491816941F008018161B0
:1035A000816901F008010491816941F01001816194
:1035B000816901F010010491816941F0200181616C
:1035C00080690F4E00F02000049000220421304654
:1035D000FDF752FB04200125CDE900050220CDE9CD
:1035E000024069463046FDF73FFAE8038DE83100B6
:1035F00069460448FDF738FA06B070BD0010024075
:10360000000C0140000801401CB500200190009012
:103610001548144901604FF0FF3141604FF480714B
:103620008160FEF70DFA0B208DF804003B208DF829
:1036300005008DF80600002201A90B48FEF7CCFA20
:1036400005208DF8000007208DF801001C208DF862
:10365000020013208DF80300002269460248FEF79D
:1036600059FA1CBD00280040BC0100200C480B4941
:103670004FF4007201604FF482714160002181605B
:10368000C1600161C0E905120822C0E90721416259
:1036900081620A21C162FFF72FB80000003C0040A0
:1036A00054020020FEE770477047010901EB8101D9
:1036B00000F00F0000EB4100C0B2704770B5044647
:1036C000FDF7E0FA05464FF47A7606E0FDF7DAFA00
:1036D000401BB04201D9032070BD206840688006BD
:1036E000F4D52068416841F010014160002070BDB0
:1036F00070B504460068416821F010014160FDF793
:10370000C1FA05464FF47A7607E000BFFDF7BAFA32
:10371000401BB04201D9032070BD2068406880067C
:10372000F4D5002070BD00000148FEF76BB9000021
:10373000BC0100200168086A496A89B241EA004078
:103740007047006881698AB2C1698BB2816989B2A8
:103750008A4203D0C06961F31F40704743EA0240C8
:103760007047F0B56424C1EBC1030927A500072603
:1037700003EB01130329B3FBF7F100F5FA601144E1
:1037800001440AD2401EB0FBF4F201EB9001B0FB01
:10379000F5F0891A0844001D08E0B0FBF4F201EBD3
:1037A0009001B0FBF5F0891A0844801CB0FBF6F1DB
:1037B00006FB1100C0B2F0BD70B50D4606460024F0
:1037C000FFF77CFF48B93168280C08623168A8B25D
:1037D00048623046FFF78CFF00B10124204670BDDF
:1037E00070B50D4606460024FFF768FF48B93168FA
:1037F000280C88613168A8B2C8613046FFF778FFAD
:1038000000B10124204670BD0A6842624A688262A3
:10381000D1E902231A43D1E904310B43C16A1A43A7
:1038200021F0F7011143C16200207047006800F0E9
:103830000300704708444069704700000148FEF7E4
:10384000B3BB0000D001002070B50DF1100C114386
:103850009CE870002343194329434268314347F6EB
:10386000FF639A430A434260002070BD10B50321F4
:1038700001600220FDF7E6F8002010BDD0F88000BE
:1038800070470A688260D1E901231A43D1E9033104
:103890000B43C1681A436FF30B011143C160002051
:1038A00070470968C0F880100020704710B586B0D6
:1038B00004463720CDE900104020029000200390FC
:1038C0004FF48060049069462046FFF7DAFF41F22A
:1038D00088323721204600F0BDF906B010BD000047
:1038E00010B504460A4886B001432920CDE90010EE
:1038F00040200290002003904FF4806004906946BD
:103900002046FFF7BEFF204600F05CFA06B010BD6F
:103910000000108010B586B004461020CDE90010DC
:1039200040200290002003904FF48060049069468C
:103930002046FFF7A6FF41F288321021204600F012
:1039400089F906B010BD10B586B004460620CDE951
:10395000001040200290002003904FF480600490FB
:1039600069462046FFF78DFF41F288320621204646
:1039700000F070F906B010BD30B585B000240546E2
:10398000009401944FF480600294CDE903406946AD
:103990002846FFF776FF0B484FF4FA510068B0FB5A
:1039A000F1F041F288314843401E03D24FF000400D
:1039B00005B030BD696B0906F6D5C520A863204661
:1039C000F6E700002800002070B585B004464FF4EB
:1039D000D570009001A908204025002681E86100EB
:1039E000C001049069462046FFF74BFF12484FF490
:1039F000FA510068B0FBF1F041F288314843401EB3
:103A000003D24FF0004005B070BD616B11F0450F5F
:103A1000F5D00905F3D4606B400701D5042003E01D
:103A2000606BC00702D00120A063ECE7606B40062A
:103A300000D5A5633046E6E72800002010B586B023
:103A400004461220CDE9001040200290002003908F
:103A50004FF48060049069462046FFF712FF41F260
:103A600088321221204600F0F5F806B010BD10B5DE
:103A700086B004461120CDE90010402002900020BD
:103A800003904FF48060049069462046FFF7F9FEEA
:103A900041F288321121204600F0DCF806B010BD5A
:103AA00010B586B004460720CDE9002040200290E2
:103AB000002003904FF48060049069462046FFF791
:103AC000E0FE41F288320721204600F0C3F806B03C
:103AD00010BD10B586B0044600210220CDE90010CB
:103AE000C020CDE902014FF4806004906946204671
:103AF000FFF7C7FE204600F03DF906B010BD10B537
:103B000086B004460920CDE90010C02002900020B4
:103B100003904FF48060049069462046FFF7B1FEA1
:103B2000204600F027F906B010BD10B586B0044657
:103B300000213320CDE900104020CDE90201000131
:103B4000049069462046FFF79CFE41F288323321FB
:103B5000204600F07FF806B010BD10B586B00446D0
:103B60000D20CDE9001040200290002003904FF47A
:103B70008060049069462046FFF783FE41F2883258
:103B80000D21204600F066F806B010BD30B585B0B6
:103B90000C46054600210320CDE900104020CDE968
:103BA00002010001049069462846FFF76AFE22469A
:103BB0000321284600F028F905B030BD10B586B0C5
:103BC000044600210C20CDE900104020CDE902017F
:103BD0000001049069462046FFF753FE034A0C217A
:103BE000204600F037F806B010BD000000E1F505F2
:103BF00010B586B004461920CDE90010402002908F
:103C0000002003904FF48060049069462046FFF73F
:103C100038FE41F288321921204600F01BF806B028
:103C200010BD10B586B004461820CDE90010402024
:103C30000290002003904FF4806004906946204673
:103C4000FFF71FFE41F288321821204600F002F8EB
:103C500006B010BD454B10B51B684FF4FA54B3FBCA
:103C6000F4F353435B1E02D24FF0004010BD426B91
:103C700012F0450FF6D01205F4D4426B520703D56B
:103C800004218163084610BD426BD20702D0012196
:103C9000816305E0C52282630269D2B28A4201D003
:103CA000012010BD0021FFF7C5FD3149084201D1B7
:103CB000002010BD002802DA4FF0007010BD410056
:103CC00001D5402010BD810001D5802010BDC1006C
:103CD00002D54FF4807010BD010102D54FF4007081
:103CE00010BD410102D54FF4806010BDC10102D565
:103CF0004FF4006010BD010202D54FF4805010BD9A
:103D0000410202D54FF4005010BD810202D54FF49C
:103D1000804010BDC10202D54FF4004010BD4103E8
:103D200002D54FF4003010BD810302D54FF480203E
:103D300010BDC10302D54FF4002010BD010402D50F
:103D40004FF4801010BD410402D54FF4001010BD97
:103D5000810402D54FF4800010BD000702D54FF456
:103D6000000010BD4FF4803010BD0000280000207E
:103D700008E0FFFD12494FF4FA520968B1FBF2F175
:103D800041F288325143491E02D24FF00040704741
:103D9000426B12F0450FF6D01205F4D4416B49077F
:103DA00003D50421816308467047416BC90703D0DE
:103DB0000121816308467047C52181630020704757
:103DC000280000200F494FF4FA520968B1FBF2F1C4
:103DD00041F288325143491E02D24FF000407047F1
:103DE000426B12F0450FF6D01205F4D4416B49072F
:103DF00003D50421816308467047C52181630020F3
:103E0000704700002800002030B5204B4FF4FA54D2
:103E10001B68B3FBF4F341F2883463435B1E02D2A8
:103E20004FF0004030BD446B14F0450FF6D0240530
:103E3000F4D4436B5B0703D504218163084630BD8E
:103E4000436BDB0702D00121816303E00369DBB22E
:103E50008B4201D0012030BDC52181630021FFF7D5
:103E6000E9FC10F4604F04D0410406D54FF4005033
:103E700030BD000C1080002030BD000402D54FF48E
:103E8000805030BD4FF4803030BD0000280000204D
:103E900010B5446A206C816BE06B806B012901D006
:103EA00001281DD12168104888632068C16B21F466
:103EB0009D71C163A06B40F08040A0632046FEF777
:103EC0005DF8062801D0052805D12068FFF776FEA9
:103ED000A16B0843A063012084F834000020206314
:103EE0002046FDF76BFF10BDFF05400010B5446A8A
:103EF000206B822809D12068FFF760FE28B1A16BF2
:103F00000143A1632046FDF759FF2068C16A21F0F3
:103F10000801C162216840F23A508863012084F8A8
:103F20003400002020632046FEF784FA10BD10B54F
:103F3000446A40F23A50216888632046FEF71EF832
:103F4000012184F8341000212163062801D00528BE
:103F500005D12068FFF732FEA16B0843A063A06B78
:103F60000028204602D0FDF729FF10BDFDF7A7FE6F
:103F700010BD10B5446A40F23A502168886320466B
:103F8000FDF7FCFF012184F834100021216306288D
:103F900001D0052805D12068FFF710FEA16B08436A
:103FA000A063A06B0028204602D0FDF707FF10BDDC
:103FB000FDF785FE10BD2DE9F04F89B00D46044692
:103FC000FCF760FE002683460096019637460821DE
:103FD0002068FFF79FFC002834D1B4F8500001049A
:103FE0002068FFF763FC00282CD1401E4FF0080822
:103FF000CDE9020830204FF00209CDE90409012083
:10400000CDE9067002A92068FFF7FEFB2068FFF7E4
:104010008CFD002816D1EA4640F22A472068416B01
:10402000394212D1416B890204D5FFF727FC4AF8C7
:104030002600761CFCF726FEA0EB0B00401CEDD101
:104040004FF0004009B0BDE8F08F416B090703D580
:10405000C0F838800820F5E7416B890703D5C0F820
:1040600038900220EEE7416B890603D52021816359
:104070000846E7E740F23A518163019800BA2860A8
:10408000009800BA68600020DCE710B590B00446E4
:104090000120ADF838002068FFF7C8FB002854D095
:1040A000606C032842D02068FFF713FD00284AD136
:1040B00000212068FFF7BEFB606704212068FFF73E
:1040C000B9FBA06708212068FFF7B4FBE0670C216B
:1040D0002068FFF7AFFBC4F88000606C032825D090
:1040E0000EA92068FFF752FD00282CD1606C032830
:1040F0001CD0BDF83800206501042068FFF7FFFCE4
:10410000002820D100212068FFF794FB606604217D
:104110002068FFF78FFBA06608212068FFF78AFB65
:10412000E0660C212068FFF785FB206704212068EA
:10413000FFF780FB000DE06403A92046FDF740FE79
:1041400030B14FF0805010B010BD4FF08060FAE7F2
:10415000B4F85000002302042068FFF7A1FC0028F7
:10416000F1D104F1100007C88DE8070094E80F00B2
:10417000FFF76AFB0020E6E72DE9F84F002604462A
:1041800000963546B0460068FFF7F6FB002827D1B9
:104190002068FFF719FC4FF0805B4FF001094FF6E4
:1041A000FF7748B1A6642068FFF7E6FB002817D127
:1041B000A06C012802D020E0C4F8489000212068BB
:1041C000FFF774FB58B918E000212068FFF76EFB79
:1041D000002805D151462068FFF782FB10B15846F0
:1041E000BDE8F88F00212068FFF724FB05464FEA61
:1041F000D0780098401C009002E0DFF82CA00098D6
:10420000B84202D2B8F1000FDED00098B84202D313
:104210004FF08070E4E7680002D5C4F8449000E0F5
:1042200066640020DCE70000000010C110B5064CF9
:1042300001202070FCF702F818B9207820F0010066
:104240002070207810BD00003400002010B5124806
:1042500088B014460078C00702D0032008B010BD13
:10426000B9B1012905D0022908D003290CD00420B6
:10427000F4E76846FBF7D0FF069809E06846FBF7CD
:10428000CBFF0798208004E06846FBF7C5FF07983E
:1042900020600020E2E700003400002070B51646E0
:1042A00008460125084C1A463146FBF7EDFF20B1C0
:1042B00008E0641E01D2012070BDFBF7B3FF0028A7
:1042C000F7D10025284670BDA086010010B5064C28
:1042D00001202070FBF7A6FF18B9207820F001001C
:1042E0002070207810BD0000340000202DE9F0413E
:1042F0001E46174608460125094C0A4B32463946E8
:10430000FBF7D2FF28B109E0641E02D20120BDE80C
:10431000F081FBF787FF0028F6D100252846F6E755
:10432000A086010000E1F5050148FEF775B900001F
:104330005402002010B5406A0021C187C186FEF7F3
:1043400067F910BD38B50B46009204460022802163
:1043500000F008F8002804D0606D40F0200060658F
:10436000032038BD2DE9F0411D4617460E46044690
:10437000DDF8188008E0681C06D0FCF783FCA0EB91
:104380000800A8420BD255B12068806836EA0000C8
:1043900030D00020B842EED10020BDE8F081206886
:1043A000416821F0E00141606068B0F5827F0BD187
:1043B000A068B0F5004F02D0B0F5806F04D120683E
:1043C000016821F040010160A06AB0F5005F09D1E9
:1043D0002068016821F4005101602068016841F4FF
:1043E00000510160012084F85100002084F8500041
:1043F0000320D2E70120CDE702210148FCF735BCBC
:104400000008014010B51148FEF703F900281CD13F
:104410000E480F494FF4007201604FF48271416001
:1044200000218160C1600161C0E905120822C0E974
:104430000721416281620A21C162FEF75DF900280D
:1044400003D0BDE81040FFF7D7BF10BD54020020D5
:104450000030014001B50A23012269460348FEF7F6
:10446000F9F9002801D0FFF7C7FF08BD540200206A
:1044700070B50E4C0D460646002202212046FCF780
:10448000FBFB012211462046FCF7F6FB0A232A46D5
:1044900031460748FEF7DEF908B1FFF7ADFF2046C9
:1044A000BDE8704001220221FCF7E6BB001001408C
:1044B00054020020704730B595B028216846FBF7BC
:1044C0005AFE14210AA8FBF756FE18210FA8FBF785
:1044D00052FE0A20009001200225CDE90605102198
:1044E000CDE9040100244FF46010CDE9084068468E
:1044F000FDF7F6F80F20CDE90A056802CDE90C407A
:1045000002210AA80E94FCF7DFFF03200F90280277
:1045100010904FF4404011900FA8FCF75FFF15B0CA
:1045200030BD00000D48016841F0010101604168A3
:104530000B4A1140416001680A4A1140016001685C
:1045400021F480210160416821F4FE0141604FF4B3
:104550001F0181600449C0030860704700100240D9
:104560000000FFF8FFFFF6FE08ED00E070B50B4C11
:104570000546002202212046FCF77EFB0022012195
:104580002046FCF779FB2846FFF764FF2046BDE88C
:10459000704001220221FCF76FBB000000100140B7
:1045A00030B5264885B0816941F01001816181698B
:1045B00001F010010491816941F01001816181696C
:1045C00001F010010491816941F008018161816964
:1045D00001F008010491816941F010018161806955
:1045E000012400F0100004900220CDE90004032013
:1045F000134D039069462846FCF736FA694628466B
:104600000094FCF731FA2002009069462846FCF736
:104610002BFA0420009069462846FCF725FA01226F
:1046200002212846FCF728FB012204212846FCF73A
:1046300023FBFFF7E7FE05B030BD0000001002408D
:1046400000100140F8B500248DF80040FFF7A8FFE6
:10465000304D002202212846FCF70EFB2E4FAE15EE
:10466000002231463846FCF707FB0220FCF7EAF946
:10467000012231463846FCF7FFFA7820FCF7E2F9D0
:10468000012202212846FCF7F7FA0021112000F050
:10469000A9F805213A2000F0A5F82A20FFF766FFC7
:1046A0008DF800400121684600F066F80121684657
:1046B00000F062F80121684600F05EF87F208DF876
:1046C00000000121684600F057F82B20FFF74EFF4D
:1046D0008DF800400121684600F04EF8012168463F
:1046E00000F04AF80121684600F046F89F208DF856
:1046F00000000121684600F03FF80021132000F07F
:1047000071F80021292000F06DF8C021362000F05A
:1047100069F8F8BD00100140000C014030B4154AA2
:10472000002358B15A280FD0B42814D04FF48774FE
:10473000A0421CD15480A9B1382114E0538009B1A2
:10474000C82110E0C0210EE05A20508009B1EC21B0
:1047500009E0E42107E0B420508009B11C2102E007
:10476000142100E0302130BC362000F03BB85380EB
:10477000E8E700001800002070B5184E0C4605460A
:10478000002202213046FCF777FA0122114630461A
:10479000FCF772FA012C01D0114911E02878FFF7DB
:1047A00059FE13E082689207FCD56A7802730868A4
:1047B00082689207FCD515F8022B0273A41EA4B2DE
:1047C0000868002CEED181680906FCD43046BDE8AB
:1047D000704001220221FCF74FBA00000010014096
:1047E0005402002013B5FFF7C1FE012101A8FFF715
:1047F000C3FF1CBD0148FEF749B90000AC02002010
:104800000148FEF743B90000B8030020F0B5026884
:104810001C4B1D4D1D4E1E4F1E4C4FF0804C9842A0
:1048200009D0A04207D0604505D0A84203D0B042CD
:1048300001D0B84204D122F0700E4A6842EA0E025A
:10484000984209D0A04207D0604505D0A84203D0C5
:10485000B04201D0B84203D122F44075CA682A435D
:104860004D6922F080022A4302608A68C2620A68A7
:104870008262984201D0A04201D1096901630121FD
:104880004161F0BD002C01400004004000080040E0
:10489000000C004000340140FEE70907090E002823
:1048A00004DB00F1E02080F80014704700F00F00F6
:1048B00000F1E02080F8141D704702E008C8121FC4
:1048C00008C1002AFAD170477047002001E001C1F9
:1048D000121F002AFBD1704710B50446002084F84F
:1048E0000402401EC4F82C02204601F0DBF808B197
:1048F000032010BDB4F8FE01A0F52A41553901D0BE
:10490000022010BD94F83600B4F8371040EA0121B7
:104910000848B0EB012F08D094F85210B4F8532097
:1049200041EA0221B0EB012F01D1002010BD01208E
:1049300010BD000000464154F0B50022184B14464B
:1049400002EB420653F8265085B1D0F80072BD4202
:104950000DD103EB8605D0F808626F68B74206D127
:104960002D89B0F80662B54204D000E00124521C43
:10497000022AE5D3022A01D079B904E05CB9022900
:1049800009D01220F0BD02EB420003EB8000408909
:10499000B0F5807F01D00020F0BD1020F0BD0000F8
:1049A000F803002030B50021064A0C4601EB410314
:1049B00052F82350854201D142F82340491C022974
:1049C000F4D330BDF8030020D0F82422D0F8000240
:1049D000490A90F80202B1FBF0F0121D02CA19B1A7
:1049E000884203D3401AF8E7002070471168084452
:1049F0007047D0F81422891E921E8A4201D80020E6
:104A00007047D0F8282290F8020201FB002070477E
:104A10002DE9F0410F00054606D000F06DFE02289A
:104A20000BD20120BDE8F081D5F80C621EB1D5F89B
:104A30001402B04208D8012606E0411CF2D0D5F895
:104A400014128142EED83E463446D5F81402641C56
:104A5000A04202D80224022E0AD32146284600F0A2
:104A60004BFE38B1411CDDD00128DBD0B442ECD183
:104A70000020D7E76FF070422146284601F02DF85C
:104A800030B957B122463946284601F026F820B100
:104A9000012812D001242046C4E7C5F80C42D5F8FD
:104AA0001002411CF7D0401EC5F8100295F805020F
:104AB00040F0010085F80502EDE74FF0FF34EAE72A
:104AC0002DE9F04789460C6800E0641C21782F2905
:104AD000FBD05C29F9D0D0F818520B2220212846AF
:104AE00000F0D9FF002001460B460826E25C5B1C63
:104AF000202A35D92F2A33D05C2A31D02E2A01D052
:104B0000B04208D3082E38D12E2A36D108200B26E1
:104B10008906090EEAE7802A05D3244F41F00301F4
:104B20003A4412F8802C22A700E07F1C97F800C0BE
:104B3000BCF1000F02D09445F7D11EE0A2F141076D
:104B4000192F02D841F0020107E0A2F16107192FE5
:104B500003D8203A41F00101D2B22A54401CC5E7E3
:104B60001C44C9F80040202A01D8042200E0002299
:104B700018B12878E52803D004E00620BDE8F087C6
:104B800005202870082E01D18806010E01F00300CF
:104B9000012801D142F01002C1F38100012801D1A6
:104BA00042F00802EA720020E8E70000AA5D00086F
:104BB000222A2B2C3A3B3C3D3E3F5B5D7C7F000034
:104BC000401E022815D20C4B00EB400203EB820181
:104BD0004889B0F5807F05D008B1401E80B2488179
:104BE00010B104E00020FAE7002043F82200002082
:104BF0007047022070470000F80300202DE9F041C3
:104C0000B0F806620446761C30040F46000C37D01C
:104C1000D4F8100298B3310773D1401CC4F81002C5
:104C2000D4F80C12D4F8000231B190F80222521ECE
:104C300012EA161F05D064E0B0F80802B0421FD98E
:104C40005FE000F059FD054601281ED9681C3AD0E6
:104C5000D4F80002D0F81412A94249D87FB1D4F890
:104C60000C12FFF7D5FE05000DD0012D0DD0681CEC
:104C700029D0D4F8000201F046F820BB07E0FFE796
:104C80000420BDE8F0810720FBE70220F9E74FF49C
:104C900000720021D4F8000200F0FDFE2946D4F88D
:104CA0000002FFF7A6FED4F8001200274FF001081B
:104CB000C1F82C0211E000BF80F80482D4F8000291
:104CC00001F021F808B10120DBE7D4F80002D0F8A8
:104CD0002C12491C7F1CC0F82C12D4F8000290F84A
:104CE0000212B942E8D8D0F82C12C91BC0F82C1215
:104CF000C4F80C522946D4F80002FFF77AFEC4F833
:104D00001002A4F80662D4F8000206F00F0100EBCE
:104D10004110C4F814020020B3E770B50446002126
:104D200000F036F810E0D4F81012D4F8000200F0C9
:104D3000B9FE58B9D4F814020078E52809D040B17A
:104D400001212046FFF75AFF0028ECD0042809D0A3
:104D500009E0D4F81012D4F8000200F0A3FE050018
:104D600003D013E00720054610E0D4F814022022F7
:104D7000002104F5007400F08EFED4E905010B2239
:104D800000F080FE2168012081F80402284670BDF1
:104D900070B5A0F80612D0F808320D460446012B73
:104DA00040D0D4F80002D0F8141299423AD933B95D
:104DB00090F80012032906D1D0F824321BB190F8E4
:104DC0000202060114E0B0F80812A9422AD9D0F86C
:104DD000240214E000F090FC0346401C20D0022B7B
:104DE00020D3D4F80002D0F8140298421AD9AD1B8F
:104DF000D4F80002B5421946ECD2FFF7FAFDC4F828
:104E00000C3278B100EB1510C4F81002D4F800028F
:104E100005F00F0100EB4110C4F81402002070BD32
:104E2000012070BD022070BD084910B50B5C002246
:104E300053B901220A540A1801EB8000127A406823
:104E40000168104688470246104610BD1004002035
:104E500030B4054C231804EB80001B7A40680469C9
:104E60001846A44630BC60471004002030B4054DFD
:104E70002C1805EB8000247A406885682046AC46F3
:104E800030BC604710040020044A111802EB800077
:104E9000097A406842680846104700001004002064
:104EA00030B4054D2C1805EB8000247A4068C568A5
:104EB0002046AC4630BC60471004002010B50446C4
:104EC00000F032FA00280DD1204600F04CFF0028F7
:104ED00008D1D4F82802FFF773FE002802D1002180
:104EE000C4F8001210BD10B5044600F03CFF0028C5
:104EF0000AD1D4F81C1221B10846FFF761FE002840
:104F000002D10021C4F8001210BD00002DE9F741C4
:104F100081B0904602980090684600F050FC040072
:104F200003D50B2004B0BDE8F0810E4E002756F8E3
:104F3000245025B12846FFF735FD85F80072019809
:104F4000002801D080F8007246F8240002D0B8F1A1
:104F5000010F01D00020E5E7002202A901A800F01E
:104F60003FFADFE7300000202DE9F747ADF50B7D74
:104F700006000ED04FF0000802F01F0727F00102D4
:104F80008CA980A8C6F8008200F02AFA040005D097
:104F9000B4E009200DF50E7DBDE8F08788A8869065
:104FA00068468C9900F048FB859D04000BD11DB12B
:104FB000780803D0012102E0062404E000216846BD
:104FC000FFF7BAFC044617F01C0F5FD04FF0010A40
:104FD000D4B1042C13D100204A4902E0401C02281D
:104FE00005D200EB400251F82220002AF6D1022817
:104FF00004D06846FFF791FE044600E01224859D28
:1050000047F0080754B179E0E87A10F0110F01D0A9
:10501000072473E0780701D508246FE0380743D5EB
:1050200000F0CBFBA873010AE973010C2974000E90
:10503000687485F80B8085F81C8085F81D8085F8DC
:105040001E8085F81F802946809800F027FC814645
:105050000021284600F0F4FD8099B9F1000F81F895
:1050600004A21FD080984946D0F82CA200F0B1FDD0
:10507000040043D18099A9F10100C1F80C02514606
:10508000809800F00FFD04000AD037E0B4BBE87A46
:10509000C10601D5042431E0B90701D5C007B7D155
:1050A000380701D547F020078098D0F82C02C6E9D0
:1050B0008705780801D0012100E00021684600F052
:1050C0009DFBC6F82802D8B186F8067286F80782DA
:1050D0004746294606F50076809800F0DFFB3061F0
:1050E000287FD5F81D1040EA0120C6E90270B7619B
:1050F000776280983060B0F80602B080204649E7B9
:105100000224FBE7F803002073B584B0050009D042
:10511000002205A9684600F063F904004FF000067C
:1051200003D037E0092006B070BD0098C5F8000232
:1051300001A8C5F818022846059900F07DFA040078
:1051400015D1D5F8141239B1C87AC00621D5009806
:1051500000F0A4FBC5F8080200980021B0F8060290
:10516000A5F804022846FFF713FE040002D0042C21
:105170000FD00FE0D5F8080240B10021284600F01A
:105180003DFBC5F81C0238B9122403E0C5F81C62C7
:1051900002E00524C5F800622046C4E72DE9F84F77
:1051A00088460021994615460446196000F0DBFD4B
:1051B000002812D194F8070200280ED194F80602B4
:1051C000C00709D0D4E98201081A01274FF0020A6A
:1051D000854200D90546A2E00720BDE8F88F00BF50
:1051E000D4F80812C8057CD1D4F8000290F8022245
:1051F000521E02EA512212F0FF0614D131B1D4F846
:10520000242232B12046FFF7DFFB06E0D4F810027B
:1052100003E0D4F8141200F06FFA022823D3411CE3
:105220005BD0C4F81402D4F81412D4F80002FFF7CB
:10523000E0FBC0B130440090680A5FEA000B2AD05E
:10524000D4F8001206EB0B0291F80202824201D957
:10525000A0EB060B91F801025B464146009AFFF76E
:1052600005FED0BB03E084F807A20220B5E794F85E
:10527000060240060CD5D4F818120098081A5845B2
:1052800006D208EB40204FF40072214600F0FAFBF2
:105290004FEA4B2637E0D4F818220098824221D0FA
:1052A00094F8060240060ED5D4F8000201232146E8
:1052B00090F80102FFF7F4FD78B994F8060220F0A7
:1052C000400084F80602D4F800020123214690F839
:1052D0000102009AFFF7CAFD20B184F8077201208D
:1052E0007BE702E00098C4F81802B4F80802C0F3A3
:1052F0000800C0F50076AE4200D92E4601193246AC
:10530000404600F0BFFBD4F80802B0443044C4F873
:105310000802D9F800008119AD1BC9F80010002D52
:105320007FF45EAF002058E770B5044600F01BFD27
:10533000002811D194F806128A060DD5480612D518
:10534000D4F800020123214690F80102D4F8182273
:10535000FFF7A6FD08B1012070BD94F8060220F009
:10536000400084F80602D4F81C12D4F8000200F0C1
:1053700099FB0028F0D1D4F82052E87A40F02000C0
:10538000E87294F80C022877B4F80C02000A6877E7
:10539000D4F80C02000CA877D4F80C02000EE877C1
:1053A000D4F81012284604F5007400F049FC00F00F
:1053B00004FAA875010AE975010C2976000E6876D1
:1053C0000020A874E874A07920F02000A071216862
:1053D000012081F804022068BDE8704000F038BC6C
:1053E0002DE9FF474FF000090746C0F80090164628
:1053F000084600F0E4F9050003D50B2004B0BDE831
:10540000F0878A4850F82540A4B13C6094F8000227
:1054100028B194F80102FFF737FDC1070CD084F8DA
:105420000092E8B284F80102FFF7FEFCC10708D041
:105430000320E3E70C20E1E70EB1400704D400208D
:10544000DCE71EB1400701D50A20D7E70025294631
:105450002046FFF741FA012823D100204FEA0D072B
:1054600004EB001191F8C22101F5DF712AB10A7A2B
:10547000D1F8091042EA012100E0002147F820108C
:10548000401C0428ECD3002657F826502DB129469D
:105490002046FFF721FA08B909E00220761C042E05
:1054A000F2D3032801D0E0BB01E00120A6E7B4F865
:1054B0000B00B0F5007F60D1E28A2AB994F824008D
:1054C000D4F8251040EA0122C4F81822217C84F87F
:1054D0000312012901D002294FD1607B514384F886
:1054E0000202F0B1431E184247D1B4F81130A4F8BB
:1054F00008321E0741D1B4F813602EB994F8206029
:10550000D4F8217046EA0726B4F80EC0BCF1000FAB
:1055100033D00CEB010707EB1317BE422DD3F61B5C
:1055200000E02AE0B6FBF0F038B3012640F6F6784A
:10553000404500D302264FF6F678404500D30326B7
:10554000801C2F44C4F82872AC44C4F81402C4E987
:10555000875C032E13D083B16144C4F82412022E59
:1055600019D000F0010100EB400001EB500000BF3A
:1055700000F2FF10B2EB502F0FD20D203EE7002BB0
:10558000FBD194F82C10D4F82D30800041EA03218F
:10559000C4F82412ECE74000EAE74FF0FF30C4F80B
:1055A0001002C4F80C02802084F80502032E30D1CA
:1055B000208E01282DD12046691C00F073FA40BBD3
:1055C00084F80592B4F8FE01A0F52A41553920D19E
:1055D0002078D4F8011040EA01201549884218D1FA
:1055E00094F8E401D4F8E51140EA01201149884219
:1055F0000FD194F8E801D4F8E91140EA0120C4F889
:10560000100294F8EC01D4F8ED1140EA0120C4F83E
:105610000C02064984F80062091F0888401C0880B3
:10562000A4F806022046FFF7BDF908E73000002085
:10563000525261417272416173B504460199087812
:105640002F2801D05C2801D1491C01910025C4F804
:10565000085201980078202806D200212046FFF742
:1056600097FBC4F814527CBD01A92046FFF728FA25
:105670000028F8D100212046FFF78AFB20BB00BF9D
:10568000D4F81012D4F8000200F00CFAE0B9D4F803
:1056900014120A7832B1CA7A12070FD40A23D4F846
:1056A000182203E004200FE05B1E06D311F8015B13
:1056B00012F8016BAD1BF7D000E02DB100212046A0
:1056C000FFF79CFA0028DBD0D4F81812C97A28B169
:1056D0000428C8D14907C6D405207CBD4907FCD49D
:1056E000D4F81412C87AC006F6D5D4F8000200F037
:1056F000D5F8C4F80802B7E72DE9F0410D46044695
:1057000002290DD3D4F81402A84209D994F8000252
:105710004FF0FF36012807D002282AD0032836D0C0
:1057200001263046BDE8F081D4F8200205EB55078C
:1057300000EB5721204600F0B5F90028F1D1C7F35E
:1057400008007F1C14F80080D4F8200200EB5721D9
:10575000204600F0A7F90028E3D1C7F30800215C38
:1057600048EA0120E90701D00609DAE7C0F30B0691
:10577000D7E7D4F8200200EB1521204600F092F97B
:105780000028CED1E8B204EB40000688C9E7D4F87F
:10579000200200EBD511204600F084F90028C0D18A
:1057A00040F2FF1000EA850020440178D0F80100A3
:1057B00041EA002020F07046B3E70020704710B5A2
:1057C00004464FF0FF302268002A13D0114600E053
:1057D000491C0B78212B0ED33A2BF9D112F8013B3F
:1057E000303B0A2B06D28A4204D1002B02D1491C3D
:1057F0001846216010BD002010BD0000F0B5034622
:10580000254AD3F80042002000EB400552F82560FD
:10581000A6420BD102EB8505D3F808626F68B74248
:1058200004D12D89B3F80662B54202D0401C02288B
:10583000EAD302281AD1002002E0401C022805D237
:1058400000EB400552F82550002DF6D1022815D066
:1058500000EB400542F8254002EB8504D3F80862CE
:105860006660B3F80632238100236381002900EBD0
:10587000400102EB8101498902D019B10020F0BD3D
:10588000491C01E04FF4807100EB400302EB8302FE
:10589000401C5181F0BD0000F80300200246488BF7
:1058A00092F80022032A02D1898A40EA0140704717
:1058B000ADF5D16DFBF778FCFEF7FDFDFDF75CFE65
:1058C0006548416941F0020141614069002200F0F0
:1058D0000200CDF87C0611463820FBF7DDFC3820AD
:1058E000FBF7CCFC002211463920FBF7D5FC392010
:1058F000FBF7C4FC002211463B20FBF7CDFC3B200C
:10590000FBF7BCFCFDF70AFE554854490024016032
:105910005449C0E901144FF48041C0E90341446196
:105920008461C4610462FBF745FBFDF76DFE4C48E2
:105930004D496830C0E900148460C46002210461EC
:10594000C0E90541DC30CDF87C464849CDF88046B9
:10595000016040F27F21C0E9011463218461C160CC
:10596000FDF749F8CDF87C460DF27C614048CDF852
:105970008046FDF71FF8FDF7F1FDFDF777FE0022E9
:1059800011460320FBF788FC0320FBF777FC00227D
:1059900011462120FBF780FC2120FBF76FFC002241
:1059A00011462220FBF778FC2220FBF767FC3048E9
:1059B000FDF75AF8FEF746FE0021B420FEF7AEFED2
:1059C00001222CA10DF24C40FFF7A0FA2A4FA0466D
:1059D0000A264FF4807529A18BA8FFF795FB0124B7
:1059E000B4FBF6F030303871B4FBF6F006FB104033
:1059F00030307871012220496846FFF7B5FAADF8DA
:105A00007C8600BF0DF284632A461D496846FFF775
:105A1000C5FB2B20FEF7AAFD02210DF27C60FEF7EC
:105A2000ABFE2C20FEF7A2FD29461548FEF720FD0F
:105A3000BDF87C06401C80B2ADF87C06A028E1D3FE
:105A40006846FFF73BFAA41CE4B2472CC8D38BA8E6
:105A5000FFF749FABFE7000000100240005800407D
:105A600068010020A0860100008001400010004075
:105A7000AC02002000000000080000202F70000091
:105A80003800002004E000BF11F8013B00F8013BA2
:105A9000521EF9D27047C9B201E000F8011B521E34
:105AA000FBD2704770B50546D0F82C020C46002694
:105AB000A04210D0284600F026F906000BD195F838
:105AC0000102012322462946FFF7D0F908B1741ECE
:105AD0000126C5F82C42304670BD2DE9F047174627
