:020000040800F2
:100000007005002045010008831B0008F71900084F
:10001000811B0008DD01000813210008000000001A
:10002000000000000000000000000000A91D000802
:100030002504000800000000851B0008AB1D000817
:100040005F0100085F0100085F010008C91C00088B
:100050005F0100085F0100085F0100085F01000800
:100060005F0100085F0100085F0100085F010008F0
:100070005F0100085F0100085F0100085F010008E0
:100080005F0100085F0100085F0100085F010008D0
:100090005F0100085F0100085F0100085F010008C0
:1000A0005F0100085F0100085F0100085F010008B0
:1000B0005F0100085F010008591E00085F01000889
:1000C0005F0100085F0100085F0100085F01000890
:1000D0005F0100085F0100085F0100085F01000880
:1000E0005F0100085F0100085F0100085F01000870
:1000F0005F0100085F0100085F0100085F01000860
:100100005F0100085F0100085F0100085F0100084F
:100110005F0100085F010008651E0008711E0008ED
:100120005F0100085F0100085F0100085F0100082F
:10013000DFF80CD000F040F800480047DD2200084E
:10014000700500200648804706480047FEE7FEE7A6
:10015000FEE7FEE7FEE7FEE7FEE7FEE7FEE7FEE777
:10016000111E000831010008D2B201E000F8012B95
:10017000491EFBD270470022F6E710B513460A4627
:1001800004461946FFF7F0FF204610BD30B50B4678
:10019000014600202022012409E021FA02F59D42B7
:1001A00005D303FA02F5491B04FA02F52844151E8B
:1001B000A2F10102F1DC30BD064C074D06E0E0681B
:1001C00040F0010394E8070098471034AC42F6D39E
:1001D000FFF7B2FF84240008A4240008FEE700B55E
:1001E000012100F006F84FF4FA705DF804EB00F01E
:1001F0001BB930B504460D46216880884861294600
:10020000204600F0BBF8A168A0890861022000F038
:100210000BF90A2000F008F9A168A08948612807B5
:10022000010E204600F0AAF8A168A089086102200A
:1002300000F0FAF8A168A0894861BDE830400A20C2
:1002400000F0F2B800B585B0002100910191029153
:100250000391224B026822499A4207D18A6942F0EF
:1002600004028A61896901F004012AE01D4B9A4267
:1002700007D18A6942F008028A61896901F00801A0
:100280001FE0194B9A4207D18A6942F010028A6135
:10029000896901F0100114E0144B9A4207D18A6970
:1002A00042F020028A61896901F0200109E0104BC7
:1002B0009A4207D18A6942F040028A61896901F055
:1002C0004001049181880091012101910321039152
:1002D0000068694600F0C4F805B000BD00080140A0
:1002E00000100240000C01400010014000140140C9
:1002F0000018014019B1C032D1B2FFF77ABF803285
:10030000FAE7000010B504461030FFF79BFF04F138
:100310001800FFF797FF04F12000FFF793FF04F1A7
:100320002800FFF78FFF2046FFF78CFF04F108003D
:10033000FFF788FF00F006FD0E49B0FBF1F00E4913
:10034000087028212046FFF754FF142000F06CF8B5
:100350000C212046FFF74DFF142000F065F8012125
:100360002046FFF746FFBDE810404FF4FA7000F05A
:100370005BB8000040420F003400002010B5838AB3
:100380000269CC0601D5136100E053618A06828BB5
:10039000836901D51A6100E05A614A06828C036ABA
:1003A00001D51A6100E05A610906818D806A01D584
:1003B000016110BD416110BD30B504460D46216894
:1003C0008088086129462046FFF7D8FFA168A089E8
:1003D0000861022000F028F8A168A08948610A207D
:1003E00000F022F82807010E2046FFF7C7FFA1689A
:1003F000A0890861022000F017F8A168A08948616F
:10040000BDE830400A2000F00FB870B50D46064632
:10041000002403E03046FFF7CFFF641C295D00296C
:10042000F8D170BD7047000003490978484300E0E7
:10043000401E0028FCD170473400002070B50446EF
:1004400000F01CF90546601C02D004480078044402
:1004500000F014F9401BA042FAD370BD3800002010
:100460002DE9F84FDFF8C891002409F1040A0AF1D8
:10047000040B23460F270BF1040ED1E00125A54004
:1004800006EA0502AA4276D1DFF8A8C14E68A6EBBB
:100490000C0866452BD00DDC032E34D005DC36B3BA
:1004A000012E19D0022E2FD11BE0112E16D0122EA4
:1004B0002AD119E0B8F5881F19D006DCB8F5803FBD
:1004C00015D0B8F5801F1FD111E0B8F5001F0ED070
:1004D000B8F5041F18D10AE0CB6815E0CB681B1DE6
:1004E00012E0CB6808330FE0CB680C330CE08B686C
:1004F0002BB1012B4FF0080303D0456104E0042326
:1005000002E0056100E00023FF2A01D8064601E071
:1005100000F104064FEA840501D9A5F12005D6F8BB
:10052000008007FA05FC28EA0C0803FA05F548EAFA
:100530000508C6F800804D68ED0070D53E4DAE69E7
:1005400046F00106AE61AD6924F0030605F0010531
:1005500000953A4D06EB050CDCF80850A607360F5F
:1005600007FA06F825EA0805DFF8D480404503D1EC
:100570004FF0000825E052E0DFF8C880404502D186
:100580004FF001081DE0DFF8C080404502D14FF078
:10059000020816E0DFF8B480404502D14FF00308AE
:1005A0000FE0DFF8AC80404502D14FF0040808E0CE
:1005B000DFF8A080404502D14FF0050801E04FF080
:1005C000060808FA06F848EA0508CCF808804D68DD
:1005D000D9F80060ED034D4601D5164300E096437F
:1005E0002E604D68DAF80060AD03554601D516431C
:1005F00000E096432E604D68DBF80060ED025D463A
:1006000001D5164300E096432E604D68DEF8006089
:10061000AD02754601D5164300E096432E60641C7A
:100620000A681646E2407FF429AFBDE8F88F000063
:1006300000040140000011100010024000000140C1
:1006400000080140000C014000100140001401406E
:1006500000180140001C01408068084000D00120C3
:100660007047C2680A4201D041617047016170471A
:100670000AB1016170470904FBE700000148806886
:10068000704700003800002070B504001BD094F8BB
:100690003D00002520B984F83C50204600F0AEF81B
:1006A000242084F83D002068016821F001010160E8
:1006B00000F028FB4D4A6168914201D84C4900E0A6
:1006C0004C49884201D2012070BD4B492368B0FBE0
:1006D000F1F15E6826F03F060E435E606368934268
:1006E00006D94FF4967359434FF47A73B1FBF3F183
:1006F0002368491C1E6A26F03F063143196261686F
:10070000914210D84900401EB0FBF1F2521CC2F3D6
:100710000B02042A01D2042022E0B0FBF1F0401CBD
:10072000C0F30B001CE0A368F3B301EBC10202EBC2
:100730000116421EB2FBF6F2521C42F48042120530
:1007400049D093B301EBC10202EB0111401EB0FB93
:10075000F1F0401CC0F30B0040F4804040F4004036
:100760002168CA694CF6FF739A431043C861D4E903
:100770000701084321680A6822F0C002104308609C
:10078000D4E9030101432068826848F2FF339A43A9
:1007900011438160D4E9050108432168CA6822F049
:1007A000FF021043C86001E00EE016E02068016817
:1007B00041F0010101602564202084F83D0025639B
:1007C00084F83E50002070BD01EB4106421EB2FB92
:1007D000F6F2521CB3E70120C2E701EB4101401ED3
:1007E000B0FBF1F0401CC0F30B00B7E7A08601009E
:1007F00080841E0000093D0040420F0010B586B005
:1008000000210091019102910391006810498842F2
:100810001BD1104CA06940F00800A061A069694696
:1008200000F0080004904FF4406000901220019006
:10083000032003900848FFF713FEE06940F48000AE
:10084000E061E06900F48000049006B010BD000093
:100850000058004000100240000C0140024881682E
:10086000027811448160704738000020074810B5B5
:10087000016841F010010160032000F08FF80020B2
:1008800000F006F800F03EF8002010BD0020024005
:1008900000B5014687B00022372000F05FF837200E
:1008A00000F04EF81348C16941F02001C161C069F0
:1008B00005A900F020000690684600F0FDF900F060
:1008C00021FA0D494000B0FBF1F10D480B4A491ED9
:1008D0000260416040F2E7320021C0E903218160FB
:1008E00000F0F0FD10B1012007B000BD044800F099
:1008F00037FEF9E70010024040420F0000140040AC
:10090000300100200C4808B5816941F00101816186
:10091000816901F001010091C16941F08051C1611B
:10092000C06900F0805000900448416821F0E06107
:1009300041F00071416008BD00100240000001401C
:10094000002809DB00F01F020121914040098000CE
:1009500000F1E020C0F8001170470000F0B40E4B29
:100960001B680C46C3F30223C3F10705042D00D90D
:100970000425191D072901D2002300E0DB1E0126F2
:1009800006FA05F1491E214099409E40761E164008
:100990003143F0BC01F0D2BB0CED00E0064900F0A1
:1009A000070208684FF6FF03184040EA0220034A96
:1009B00010430860704700000CED00E00000FA05ED
:1009C000014901200862704700000E4210B52CA4B6
:1009D00001461DCC86B08DE81D002DA02D4C006871
:1009E0000490002004292FD00BDC01292FD00229EC
:1009F00028D100F097F96168C1F38131491C4900A1
:100A00001EE0082920D010291CD161682268D2017B
:100A100018D5C1F38342C9031DF8020009D56168E6
:100A200004AAC1F34041515C1B4AB2FBF1F14843B7
:100A300001E01A4948436168490203D44000032198
:100A4000B0FBF1F006B010BD00F07CF9FAE7226AC5
:100A5000C2F30121012903D1920701D5C803F1E7AF
:100A6000022905D1626A920702D549F64040E9E7BA
:100A70000329E7D121688903E4D54FF22440E1E757
:100A800002030405060708090A0B0C0D0E0F1010CF
:100A9000010200000010024000127A0000093D002F
:100AA0002DE9F84305460078354CC00754D0E0697D
:100AB0000026C00008D4E06940F08050E061E069A1
:100AC000012600F0805000902E480168C90512D41C
:100AD0000168804641F480710160FFF7CFFD074651
:100AE00005E000BFFFF7CAFDC01B642823D8D8F873
:100AF0000000C005F6D5206A10F4407021D0A98806
:100B000001F4407181421CD0206A1F49012220F467
:100B100040700A6000220A602062C00711D0FFF70F
:100B2000ADFD074641F2883808E000BFFFF7A6FD9B
:100B3000C11B414502D90320BDE8F883206A800724
:100B4000F4D5206A696820F44070084320621EB121
:100B5000E06920F08050E0612878800705D5606862
:100B6000A96820F44040084360602878C00605D595
:100B70006068696920F48000084360600020DBE75A
:100B80000010024000700040400442422DE9F0474E
:100B90000F46050061D0434E306800F00700B842B0
:100BA00009D2306820F0070038433060306800F028
:100BB0000700B84251D128683B4C810712D5400745
:100BC00003D5606840F4E06060602878000703D5D2
:100BD000606840F4605060606068A96820F0F000D0
:100BE000084360602878C00728D06868012810D0C2
:100BF0002168022810D0890700292EDA616821F0C7
:100C0000030101436160FFF739FD804641F28839F5
:100C10000DE021688903EFE78901EDE7FFF72EFD7D
:100C2000A0EB0801494502D90320BDE8F0876068C0
:100C3000696800F00C00B0EB810FEFD1306800F074
:100C40000700B8420BD9306820F007003843306005
:100C5000306800F00700B84201D00120E5E72878AD
:100C6000400705D56068E96820F4E06008436060EB
:100C70002878000706D56068296920F4605040EAAA
:100C8000C100606000F05EF86168084AC1F30311BA
:100C9000515CC8400649086006480068FFF7F8FD47
:100CA0000020C2E700200240001002406C2400082F
:100CB000440000203C0000200F2202600C4A5368D0
:100CC00003F003034360536803F0F0038360536849
:100CD00003F4E063C36052684FF4E06303EAD202B6
:100CE00002610448006800F00700086070470000D7
:100CF00000100240002002400148006870470000D8
:100D0000440000200448054900684968044AC1F3CA
:100D10000221515CC840704744000020001002408E
:100D20007C2400080448054900684968044AC1F366
:100D3000C221515CC84070474400002000100240AE
:100D40007C24000889B00020154A04900590069084
:100D500007900FCA8DE80F0012A0134A0068089090
:100D60005168124801F00C03042B13D0082B11D149
:100D7000C1F383431DF80300CB0309D5526808ABC8
:100D8000C2F340429A5C094B5843B0FBF2F001E0D9
:100D9000074A5043090100D5400009B070470000E0
:100DA0005C240008010200000010024000127A00DA
:100DB00000093D002DE9F84F040070D02078C04DA7
:100DC000C00749D06868C0F38100012807D068686F
:100DD000C0F38100022809D16868C00306D52868DD
:100DE000800339D560680028E7D035E06068B0F549
:100DF000803F0BD010B1B0F5A02F11D0286820F49F
:100E000080302860286820F4802002E0286840F4C0
:100E100080302860606890B1FFF730FC06460AE039
:100E2000286840F480202860F0E700BFFFF726FC28
:100E3000801B642873D828688003F7D50CE0FFF77F
:100E40001DFC064605E000BFFFF718FC801B642868
:100E5000F0D828688003F7D420789A4E80074FF0A6
:100E600001094FF0000839D5686810F00C0F07D061
:100E70006868C0F38100022809D16868C00306D4FD
:100E80002868800714D52069012808D110E020695E
:100E9000B0B1C6F80090FFF7F1FB074605E00AE1A4
:100EA000FFF7ECFBC01B0228C4D828688007F7D5E1
:100EB0002868616920F0F80040EAC10028600DE070
:100EC000C6F80080FFF7DAFB074604E0FFF7D6FB21
:100ED000C01B022823D828688007F7D42078000791
:100EE0002CD57948A169D9B1C0F80090FFF7C6FBAD
:100EF000074604E0FFF7C2FBC01B02280FD8686A50
:100F00008007F7D571484FF4FA510068B0FBF1F053
:100F1000009000BF0098411E0091FAD20EE080E0E0
:100F2000C0F80080FFF7AAFB074604E0FFF7A6FB26
:100F3000C01B022875D8686A8007F7D4207840075C
:100F400060D5E8690027C00008D4E86940F0805007
:100F5000E861E869012700F0805000905C48016872
:100F6000C90513D40168834641F480710160FFF71D
:100F700085FB824606E000BFFFF780FBA0EB0A007E
:100F800064284ED8DBF80000C005F5D5E0680128DC
:100F90000AD008B1052813D0286A20F00100286281
:100FA000286A20F0040002E0286A40F0010028626C
:100FB000E06841F2883B98B1FFF760FB82460BE0A6
:100FC000286A40F004002862EEE700BFFFF756FBF6
:100FD000A0EB0A0159455AD8286A8007F6D50CE0DB
:100FE000FFF74CFB824605E0FFF748FBA0EB0A0148
:100FF00059454CD8286A8007F6D41FB1E86920F01B
:101000008050E861E06988B36968C1F38101022911
:1010100044D00228C6F8608004D0FFF72FFB0446B6
:1010200038E034E0FFF72AFB074604E0FFF726FB31
:10103000C01B02282BD828688001F7D4206AB0F59D
:10104000803F05D16868A16820F4003008436860DB
:10105000D4E908010843696821F474110843686001
:10106000C6F86090FFF70AFB044606E025E000BFE3
:10107000FFF704FB001B022809D828688001F7D578
:101080001BE000BFFFF7FAFA001B022802D9032079
:10109000BDE8F88F28688001F4D40EE00128F7D06D
:1010A0006868226A00F48031914204D1616A00F4D8
:1010B0007010884201D00120EAE70020E8E7000034
:1010C00000100240000042428004424244000020DE
:1010D000007000407047704710B504460068016812
:1010E000C90716D04168C90713D040684007204699
:1010F00007D5FFF7F0FF21686FF004004860042077
:1011000002E0FFF7E7FF0120607421686FF0010043
:10111000486010BD2DE9F04791460C465FEA000893
:101120004AD084B3D8F800004068400744D4404611
:1011300000F0D7FD4FF461620546B0FBF2F1B0FB61
:10114000F2F302FB13503C23B0FBF3F0B5FBF2F6D5
:10115000607002FB1650B0FBF3F203FB1200A070AC
:10116000182931D31820B1FBF0F7B1FBF0F200FBE6
:1011700012102070404600F0ADFD411C04D0A84282
:1011800002D9461B02E017E04FF0FF36A7EB07102D
:1011900000EB4000C0EB001005EBC01529464046AF
:1011A00000F0EEFD40B9701C01D0711900E031462D
:1011B000404600F0D1FD10B10120BDE8F08739466E
:1011C000404600F0F4FC00E02170B9F1000F0BD0B4
:1011D000207800F0E1FC2070607800F0DDFC6070A9
:1011E000A07800F0D9FCA0700020E6E770B50400FC
:1011F00003D0607C002610B105E0012070BD26748C
:10120000204600F043F802206074204600F01AF9EE
:10121000042578BB204600F021FD58BB20684168BA
:1012200021F007014160A06820B11748016821F052
:10123000010101601448001F0168A26821F4607177
:10124000114301606068411C04D10120FFF7BEFB1F
:1012500080B1401E21688A6822F00F0242EA1042E3
:101260008A602168CA6860F30F02CA60204600F0F5
:101270000FFD08B16574C0E7E67301206073A073C9
:101280006074002070BD0000306C004008B500683C
:101290000D49884217D1FFF793FB0C48C16941F013
:1012A0000061C161C0690A4900F00060009001203E
:1012B0000860002211460320FFF750FBBDE80840FC
:1012C0000320FFF73DBB08BD00280040001002408E
:1012D0003C0442422DE9F0410D4604003BD0C5B329
:1012E000207C01283AD04FF0010884F810800220B9
:1012F0006074E87872B300F046FCE073687800F040
:1013000042FC6073A87800F03EFCA073C2B2617B1F
:10131000E07B00F0F6FC20732870204600F0E1FC32
:101320004FF46161B0FBF1F1002518292DD9182285
:10133000B1FBF2F1A1EB011101EB4101C1EB011194
:1013400000EBC1163146204600F01AFD0427C8B94B
:101350000BE000E004E00120BDE8F0810220FBE7A3
:10136000E07368786073A878CFE7204600F0B2FC9D
:10137000411C0AD0B04208D206490144204600F080
:10138000EBFC10B167742574E5E784F811802574CF
:101390000020E1E7805101002DE9F0410D460400F5
:1013A00024D01DB3207C012823D04FF0010884F8FD
:1013B0001080022060742878EAB100F0E4FB4FF45A
:1013C000616100FB01F6687800F0DDFBC0EB001006
:1013D00006EB8006A87800F0D6FB35182946204693
:1013E00000F0CEFC0026042710BB0FE00120BDE872
:1013F000F0810220FBE74FF4616148436978C1EB5B
:10140000011100EB8100A9784518E7E720684168E1
:1014100021F005014160204600F05CFC411C0AD02F
:10142000A84208D206490144204600F095FC10B1BC
:1014300067742674DAE784F8118026740020D6E7F2
:101440008051010070B504000AD02068416821F085
:1014500008014160FFF712F905464FF47A7608E07B
:10146000012070BDFFF70AF9401BB04201D90320EB
:1014700070BD206840680007F4D5002070BD70473B
:10148000704770B590F83C20012A19D0012400F86B
:101490003C4F0222427050F83C3C5A689D6822F052
:1014A00070060A684968324325F0800529435A606E
:1014B00050F83C2C9160447000210170084670BDCA
:1014C000022070BD10B5040003D094F83D0010B1A7
:1014D00007E0012010BD002084F83C00204600F009
:1014E0000DF8022084F83D00211D206800F0C6FCA4
:1014F000012084F83D00002010BD000008B5154A09
:101500000168154891420ED1C16941F00401C161E1
:10151000C069002200F00400009011461E20FFF771
:101520001DFA1E2010E00D4A914211D1C16941F00F
:101530001001C161C069002200F010000090114646
:101540003620FFF70BFA3620BDE80840FFF7F8B960
:1015500008BD0000000800400010024000100040DC
:101560000168CA6842F00102CA600068816801F03F
:101570000701062903D0016841F001010160002044
:1015800070470168CA6822F00102CA600068016AF7
:1015900041F21112114207D1016A9210114203D196
:1015A000016821F0010101600020704770B5044618
:1015B00090F83C00012817D0012584F83C50022007
:1015C00084F83D002068826822F0770222F47F428E
:1015D00082600868502830D00DDC20284DD005DC12
:1015E00098B310283BD148E0022070BD302844D089
:1015F000402834D139E0602828D0702806D0B0F5D2
:10160000805F2CD0B0F5005F29D10AE0CB68D1E92A
:101610000121206800F085FC2068816841F0770195
:1016200009E0CB68D1E90121206800F07AFC20684C
:10163000816841F48041816011E0CA68496820688E
:1016400000F044FD5021206807E016E0CA684968B0
:10165000206800F04CFD6021206800F06CFC84F8EC
:101660003D50002084F83C0070BDCA68496820687D
:1016700000F02CFD40212068EFE72268014610466B
:10168000EBE7704770B50446006801694FF000054C
:10169000C943890715D4C168C943890711D4E91E14
:1016A000016101202077206880698007204602D0F0
:1016B000FFF7E7FF04E000F0BFF8204600F041F933
:1016C000257720680169C943490717D4C168C94310
:1016D000490713D46FF004010161022020772068CC
:1016E000806910F4407F204602D0FFF7CAFF04E073
:1016F00000F0A2F8204600F024F92577206801695F
:10170000C943090716D4C168C943090712D46FF049
:1017100008010161042020772068C0698007204605
:1017200002D0FFF7AEFF04E000F086F8204600F09C
:1017300008F9257720680169C943C90617D4C1682B
:10174000C943C90613D46FF0100101610820207746
:101750002068C06910F4407F204602D0FFF791FF57
:1017600004E000F069F8204600F0EBF825772068E7
:101770000169C943C90708D1C168C943C90704D170
:10178000891E0161204600F0FFF820680169C94305
:10179000090609D4C168C943090605D46FF0800160
:1017A00001612046FFF76BFE20680169C9434906C5
:1017B00009D4C168C943490605D46FF040010161ED
:1017C000204600F017F920680169C94389060BD447
:1017D000C168C943890607D46FF020010161204622
:1017E000BDE87040FFF74CBE70BD000000B585B08D
:1017F0000021009101910291039100680B498842F8
:1018000012D10B48816941F0080181618069694604
:1018100000F0080004904FF4007000900220019046
:1018200003900448FEF71CFE05B000BD0008004010
:1018300000100240000C0140704770B5044690F85B
:101840003C000D4601280DD0012684F83C600220A2
:1018500084F83D0042B1042A18D0082A2AD00C2A64
:101860004DD139E0022070BD206800F06DFB20688A
:10187000816941F0080181612068816921F00401DA
:101880008161206881692A69114311E0206800F0B4
:101890008BFB2068816941F4006181612068816966
:1018A00021F480618161206881692A6941EA02210D
:1018B000816124E0206800F0ADFB2068C16941F03F
:1018C0000801C1612068C16921F00401C16120687B
:1018D000C1692A69114311E0206800F0CFFB20683C
:1018E000C16941F40061C1612068C16921F480616E
:1018F000C1612068C1692A6941EA0221C16184F895
:101900003D60002084F83C0070BD10B5040003D099
:1019100094F83D0010B107E0012010BD002084F8CC
:101920003C00204600F00CF8022084F83D00211D08
:10193000206800F0A3FA012084F83D00002010BDCB
:101940007047704710B504460068012200F0DCFAC9
:101950000B492068884202D00A49884203D1416C71
:1019600041F4004141642068816801F007010629C3
:1019700003D0016841F001010160002010BD0000AA
:10198000002C01400034014010B5044600681449A1
:10199000884201D1FEF762FF12492068884203D1D4
:1019A00004211148FEF75DFE10492068884215D1D8
:1019B0000F484188491C89B24180632902D900211E
:1019C000418001E0322901D289B201E0C1F1630115
:1019D000018008040549C00B4031086010BD0000BB
:1019E0000014004000100040000C014000080040BE
:1019F000000000207047FEE72DE9F04186B0002589
:101A000023480095019502950395816941F00401F1
:101A10008161816901F004010491816941F008014B
:101A20008161816901F008010491816941F010012F
:101A300081618069174F00F0100048F2040604909D
:101A4000002231463846FEF713FEDFF84C800022B4
:101A50003F214046FEF70CFE0124CDE900456946D2
:101A60000E480294FEF7FCFC0096CDE9014569465C
:101A700038460394FEF7F4FC3F208DE831006946B8
:101A800040460394FEF7ECFC06B0BDE8F081000090
:101A900000100240000C014000100140000801400D
:101AA0001CB5002416480194144900940160611E7D
:101AB00041604FF480718160FFF798FB0B208DF837
:101AC00004003B208DF8050032208DF8060000222E
:101AD00001A90B48FFF760FC01208DF800000520EC
:101AE0008DF8010019208DF802008DF803400022C6
:101AF00069460348FFF7EEFB1CBD000000280040CC
:101B00009C00002010B58EB000240794089409941E
:101B10000A940B941C2168460C94FEF72CFB174882
:101B20001549016041F26F71C0E901146321C0E9F8
:101B300003148461FFF7C6FC4FF48050079007A997
:101B40000E48FFF733FD0D48FFF7DFFE0B940BA99E
:101B50000A480C94FFF795FC602000903120CDE9F5
:101B600001040C22694605480494FFF766FE034809
:101B7000FFF73CFE0EB010BD00080040B000002092
:101B8000FEE770477047010901EB810100F00F008B
:101B900000EB4100C0B27047002102E00A38C0B239
:101BA000491C0A28FAD2090740EA116070472DE95A
:101BB000F04104460025C07B627BA37B42E0012A02
:101BC00016D0032A14D0052A12D0072A10D0082ACA
:101BD0000ED00A2A0CD00C2A0AD0042A10D0062AC9
:101BE0000ED0092A0CD00B2A0AD0022A0DD028E0E8
:101BF0001F2B0CD30C2A05D101221346401C20E0D8
:101C00001E2B04D30123521C1BE01C2B02D203F118
:101C1000010316E011D183B29E0710D16426B3FBF5
:101C2000F6F706FB173636B94FF4C876B3FBF6F76E
:101C300006FB17331BB91D2303E01D2B01D1032223
:101C400001236D1C8D42BAD3D1B2E0736173DAB255
:101C5000A27300F056F82073BDE8F08170B5044619
:101C6000FEF70CFD05464FF47A7606E0FEF706FD1A
:101C7000401BB04201D9032070BD20684068800637
:101C8000F4D52068416841F010014160002070BD2A
:101C900070B504460068416821F010014160FEF70C
:101CA000EDFC05464FF47A7607E000BFFEF7E6FC50
:101CB000401BB04201D9032070BD206840688006F7
:101CC000F4D5002070BD00000148FFF705BA000000
:101CD0009C0000200168086A496A89B241EA004014
:101CE0007047006881698AB2C1698BB2816989B223
:101CF0008A4203D0C06961F31F40704743EA024043
:101D00007047F0B56424C1EBC1030927A50007267D
:101D100003EB01130329B3FBF7F100F5FA6011445B
:101D200001440AD2401EB0FBF4F201EB9001B0FB7B
:101D3000F5F0891A0844001D08E0B0FBF4F201EB4D
:101D40009001B0FBF5F0891A0844801CB0FBF6F155
:101D500006FB1100C0B2F0BD70B50D46064600246A
:101D6000FFF77CFF48B93168280C08623168A8B2D7
:101D700048623046FFF78CFF00B10124204670BD59
:101D800070B50D4606460024FFF768FF48B9316874
:101D9000280C88613168A8B2C8613046FFF778FF27
:101DA00000B10124204670BD7047704770B596B0F1
:101DB00028216846FEF7DFF914210AA8FEF7DBF9AF
:101DC00018210FA8FEF7D7F901240A20009010204F
:101DD000CDE9044000254FF460100226CDE90850FB
:101DE000CDE906466846FEF7E5FF0F20CDE90A0675
:101DF000A002CDE90C5002210AA80E95FEF7C6FEFE
:101E00006002CDE90F400FA8FEF74AFE16B070BD84
:101E10000D48016841F00101016041680B4A114021
:101E2000416001680A4A11400160016821F4802183
:101E30000160416821F4FE0141604FF41F0181609F
:101E40000449C00308607047001002400000FFF81A
:101E5000FFFFF6FE08ED00E00148FFF713BC0000AD
:101E6000B00000200148FFF70DBC0000F00000208A
:101E70000148FFF707BC000030010020F0B5026800
:101E80001C4B1D4D1D4E1E4F1E4C4FF0804C98425A
:101E900009D0A04207D0604505D0A84203D0B04287
:101EA00001D0B84204D122F0700E4A6842EA0E0214
:101EB000984209D0A04207D0604505D0A84203D07F
:101EC000B04201D0B84203D122F44075CA682A4317
:101ED0004D6922F080022A4302608A68C2620A6861
:101EE0008262984201D0A04201D1096901630121B7
:101EF0004161F0BD002C014000040040000800409A
:101F0000000C00400034014010B501F01F03012116
:101F1000046A99408C430462016A9A401143016249
:101F200010BD10B5846842EA032224F47F440A43BA
:101F30002243826010BD826822F070020A4342F0A0
:101F40000701816070470000F0B5026A22F00102CB
:101F50000262036A42688469124E24F073050C68B9
:101F60002C4323F002058B682B430D4DA84201D072
:101F7000B04205D123F00807CB683B4323F00403AC
:101F8000A84201D0B04205D14D6922F440721543F8
:101F90008A692A4342608461496841630362F0BDF3
:101FA000002C014000340140F0B5026A22F010021A
:101FB0000262026A436884690D6824F4E64444EAD4
:101FC00005248D6822F0200242EA05120F4D104EC2
:101FD000A84201D0B04206D1CF6822F0800242EA86
:101FE000071222F04002A84201D0B04207D14D6949
:101FF00023F4406343EA85038D6943EA8503436024
:102000008461496881630262F0BD0000002C0140D8
:1020100000340140F0B5026A22F480720262026A62
:102020004368C46922F4007224F073050C68124EF0
:102030002C438D6842EA05220E4DA84201D0B042E1
:1020400006D1CF6822F4006242EA072222F48062BD
:10205000A84201D0B04207D14D6923F4405343EA6E
:1020600005138D6943EA05134360C4614968C16380
:102070000262F0BD002C01400034014030B5026A1C
:1020800022F480520262046A4268C3690D6823F434
:10209000E64343EA05238D6824F4005444EA0534FA
:1020A000084DA84202D0084DA84204D14D6922F43F
:1020B000804242EA85124260C36149680164046259
:1020C00030BD0000002C01400034014010B5036A0F
:1020D000046A24F001040462846924F0F00444EAF0
:1020E000021423F00A020A438461026210BD10B593
:1020F000036A23F0100303628369046A23F47043C4
:1021000043EA023224F0A00343EA01118261016232
:1021100010BDFEE70FB4084B10B504A902AA03983E
:1021200000F02CF8044602A9002000F0D1F8204667
:1021300010BC5DF814FB0000D12200080907090E4D
:10214000002804DB00F1E02080F80014704700F064
:102150000F0000F1E02080F8141D704702E008C86D
:10216000121F08C1002AFAD170477047002001E011
:1021700001C1121F002AFBD1704700002DE9FF4F5B
:1021800089B09B460446002506E025280BD05A4618
:102190000B999047641C6D1C20780028F5D10DB078
:1021A0002846BDE8F08F0027B8460122474900E0E5
:1021B000074314F8013F203B02FA03F00842F7D12D
:1021C00020782E2819D114F8010F47F004072A2887
:1021D0000ED06FF02F022078A0F1300109290CD821
:1021E00008EB880102EB410100EB0108641CF2E7F7
:1021F0000A98641C50F8048B0A9020780028CED0EE
:10220000642808D0692806D075281ED05A460B9934
:1022100090476D1C58E00A994FF00A0901C90A91CC
:10222000002802DA40422D2102E0390504D52B2195
:102230008DF82010012103E0F90704D02021F7E7F1
:102240008A4608AE0DE00021FAE70A994FF00A0924
:1022500001C90A91F7E74946FDF798FF303106F8C2
:10226000011D0028F7D1ADEB060000F12009780729
:1022700001D44FF00108C84502DDA8EB090000E0D9
:1022800000208046002706E008A85A46C05D0B994A
:1022900090476D1C7F1C5745F6DB04E030205A4602
:1022A0000B9990476D1CB8F10001A8F10108F5DC0D
:1022B00005E016F8010B5A460B9990476D1CB9F1D1
:1022C0000001A9F10109F4DC641C65E7092801009B
:1022D0000A68531C0B601070704700008AB000251C
:1022E0001426FEF7C3FAFFF761FDFFF785FB4F48A1
:1022F0004D49002401604E49C0E901144FF480416A
:10230000C0E9034144618461C4610462FEF7BCF921
:10231000FFF7C6FBFFF7F6FB44480394A830454996
:102320000494016041F26F71C0E9011442F20F712F
:102330008461C160FFF7C6F83C48039403A9A83044
:102340000494FFF79EF839480994A830FFF708F97C
:1023500036486830FFF704F934480C216830FFF73D
:10236000F1FA3548FDF7CEFF761E16F0FF06FBD1D9
:10237000324C334E40F2DC5760682C48002209A9E9
:102380005430FEF7C7FE9DF8260000909DF82530DA
:102390009DF824202BA105A8FFF7BCFE2648FDF7D9
:1023A0001EFF002211462448FDF7A4FF05A922487C
:1023B000FEF72BF801213046FEF74EF900281B48A6
:1023C00000F1A80002D0FFF7CBF801E0FFF7D9F841
:1023D0006D1CEDB2012D19D0022D1AD0032D1BD08A
:1023E000042D1CD0002543462A4619A105A8FFF755
:1023F00091FE002201211048FDF77CFF05A90E483F
:10240000FEF703F83846FEF719F8B5E7FEF79AFC31
:1024100007E0FEF771FC04E0FEF774FC01E0FEF754
:1024200081FC8046DFE700000058004048000020A3
:10243000A0860100001000400400002000100240AF
:102440000008014025643A25643A25640000000034
:102450004E3D25642C463D25640000000203040522
:10246000060708090A0B0C0D0E0F101000000000E3
:102470000000000001020304060708090000000034
:1024800001020304A424000800000020480000000A
:102490005C210008EC24000848000020280500000A
:1024A0006C21000800000000001001402000000026
:1024B0000010014010000000001001400800000062
:1024C0000010014004000000001001400200000064
:1024D00000100140010000000000000001000000A9
:0C24E00010000000000000000024F400C8
:0400000508000131BD
:00000001FF
