:020000040800F2
:100000004005002045010008BF1A00089F1700089E
:10001000BD1A0008DD0100085320000800000000A0
:10002000000000000000000000000000E51C0008C7
:10003000DF01000800000000C11A0008E71C0008EA
:100040005F0100085F0100085F010008051C00084F
:100050005F0100085F0100085F0100085F01000800
:100060005F0100085F0100085F0100085F010008F0
:100070005F0100085F0100085F0100085F010008E0
:100080005F0100085F0100085F0100085F010008D0
:100090005F0100085F0100085F0100085F010008C0
:1000A0005F0100085F0100085F0100085F010008B0
:1000B0005F0100085F010008991D00085F0100084A
:1000C0005F0100085F0100085F0100085F01000890
:1000D0005F0100085F0100085F0100085F01000880
:1000E0005F0100085F0100085F0100085F01000870
:1000F0005F0100085F0100085F0100085F01000860
:100100005F0100085F0100085F0100085F0100084F
:100110005F0100085F010008A51D0008B11D00086F
:100120005F0100085F0100085F0100085F0100082F
:10013000DFF80CD000F040F8004800471D2200080E
:10014000400500200648804706480047FEE7FEE7D6
:10015000FEE7FEE7FEE7FEE7FEE7FEE7FEE7FEE777
:10016000511D000831010008D2B201E000F8012B56
:10017000491EFBD270470022F6E710B513460A4627
:1001800004461946FFF7F0FF204610BD30B50B4678
:10019000014600202022012409E021FA02F59D42B7
:1001A00005D303FA02F5491B04FA02F52844151E8B
:1001B000A2F10102F1DC30BD064C074D06E0E0681B
:1001C00040F0010394E8070098471034AC42F6D39E
:1001D000FFF7B2FFAC230008CC230008FEE770470E
:1001E00070B5044600F01CF90546601C02D00448B6
:1001F0000078044400F014F9401BA042FAD370BD0B
:10020000040000202DE9F84FDFF8C891002409F11F
:10021000040A0AF1040B23460F270BF1040ED1E068
:100220000125A54006EA0502AA4276D1DFF8A8C159
:100230004E68A6EB0C0866452BD00DDC032E34D09F
:1002400005DC36B3012E19D0022E2FD11BE0112E62
:1002500016D0122E2AD119E0B8F5881F19D006DC65
:10026000B8F5803F15D0B8F5801F1FD111E0B8F563
:10027000001F0ED0B8F5041F18D10AE0CB6815E0B6
:10028000CB681B1D12E0CB6808330FE0CB680C3342
:100290000CE08B682BB1012B4FF0080303D04561B4
:1002A00004E0042302E0056100E00023FF2A01D8F6
:1002B000064601E000F104064FEA840501D9A5F1E4
:1002C0002005D6F8008007FA05FC28EA0C0803FA96
:1002D00005F548EA0508C6F800804D68ED0070D5C0
:1002E0003E4DAE6946F00106AE61AD6924F00306ED
:1002F00005F0010500953A4D06EB050CDCF80850B9
:10030000A607360F07FA06F825EA0805DFF8D480B5
:10031000404503D14FF0000825E052E0DFF8C880E7
:10032000404502D14FF001081DE0DFF8C080404594
:1003300002D14FF0020816E0DFF8B480404502D148
:100340004FF003080FE0DFF8AC80404502D14FF0DA
:10035000040808E0DFF8A080404502D14FF005080E
:1003600001E04FF0060808FA06F848EA0508CCF85C
:1003700008804D68D9F80060ED034D4601D516435D
:1003800000E096432E604D68DAF80060AD035546F4
:1003900001D5164300E096432E604D68DBF80060FF
:1003A000ED025D4601D5164300E096432E604D6890
:1003B000DEF80060AD02754601D5164300E09643B5
:1003C0002E60641C0A681646E2407FF429AFBDE83F
:1003D000F88F0000000401400000111000100240DE
:1003E0000000014000080140000C014000100140E5
:1003F0000014014000180140001C014080680840C2
:1004000000D001207047C2680A4201D041617047A4
:10041000016170470AB1016170470904FBE7000000
:1004200001488068704700000400002070B5040097
:100430001BD094F83D00002520B984F83C5020469C
:1004400000F0AEF8242084F83D002068016821F017
:100450000101016000F028FB4D4A6168914201D81A
:100460004C4900E04C49884201D2012070BD4B4903
:100470002368B0FBF1F15E6826F03F060E435E6034
:100480006368934206D94FF4967359434FF47A73D5
:10049000B1FBF3F12368491C1E6A26F03F06314385
:1004A00019626168914210D84900401EB0FBF1F218
:1004B000521CC2F30B02042A01D2042022E0B0FB3A
:1004C000F1F0401CC0F30B001CE0A368F3B301EB98
:1004D000C10202EB0116421EB2FBF6F2521C42F4BC
:1004E0008042120549D093B301EBC10202EB011126
:1004F000401EB0FBF1F0401CC0F30B0040F4804004
:1005000040F400402168CA694CF6FF739A431043D7
:10051000C861D4E90701084321680A6822F0C002D3
:1005200010430860D4E9030101432068826848F25F
:10053000FF339A4311438160D4E9050108432168E0
:10054000CA6822F0FF021043C86001E00EE016E026
:100550002068016841F0010101602564202084F8D1
:100560003D00256384F83E50002070BD01EB41063C
:10057000421EB2FBF6F2521CB3E70120C2E701EBC8
:100580004101401EB0FBF1F0401CC0F30B00B7E787
:10059000A086010080841E0000093D0040420F003B
:1005A00010B586B00021009101910291039100687D
:1005B000104988421BD1104CA06940F00800A0618E
:1005C000A069694600F0080004904FF44060009074
:1005D00012200190032003900848FFF713FEE06902
:1005E00040F48000E061E06900F48000049006B00F
:1005F00010BD00000058004000100240000C0140F7
:10060000024881680278114481607047040000202C
:10061000074810B5016841F010010160032000F0A7
:100620008FF8002000F006F800F03EF8002010BD22
:100630000020024000B5014687B00022372000F0BC
:100640005FF8372000F04EF81348C16941F02001EF
:10065000C161C06905A900F020000690684600F05D
:10066000FDF900F021FA0D494000B0FBF1F10D4811
:100670000B4A491E0260416040F2E7320021C0E9A6
:100680000321816000F0F2FD10B1012007B000BD30
:10069000044800F039FEF9E70010024040420F0024
:1006A00000140040FC0000200C4808B5816941F0AE
:1006B00001018161816901F001010091C16941F08D
:1006C0008051C161C06900F08050009004484168C9
:1006D00021F0E06141F00071416008BD001002406E
:1006E00000000140002809DB00F01F0201219140B9
:1006F0004009800000F1E020C0F8001170470000C0
:10070000F0B40E4B1B680C46C3F30223C3F107057C
:10071000042D00D90425191D072901D2002300E06A
:10072000DB1E012606FA05F1491E214099409E4034
:10073000761E16403143F0BC01F0A0BC0CED00E089
:10074000064900F0070208684FF6FF03184040EA28
:100750000220034A10430860704700000CED00E0DF
:100760000000FA05014901200862704700000E42AE
:1007700010B52CA401461DCC86B08DE81D002DA01F
:100780002D4C00680490002004292FD00BDC012997
:100790002FD0022928D100F097F96168C1F3813187
:1007A000491C49001EE0082920D010291CD161688D
:1007B0002268D20118D5C1F38342C9031DF8020093
:1007C00009D5616804AAC1F34041515C1B4AB2FBE0
:1007D000F1F1484301E01A4948436168490203D4F2
:1007E00040000321B0FBF1F006B010BD00F07CF931
:1007F000FAE7226AC2F30121012903D1920701D548
:10080000C803F1E7022905D1626A920702D549F6C9
:100810004040E9E70329E7D121688903E4D54FF295
:100820002440E1E702030405060708090A0B0C0D42
:100830000E0F1010010200000010024000127A009A
:1008400000093D002DE9F84305460078354CC00706
:1008500054D0E0690026C00008D4E06940F0805020
:10086000E061E069012600F0805000902E480168A8
:10087000C90512D40168804641F480710160FFF718
:10088000CFFD074605E000BFFFF7CAFDC01B642887
:1008900023D8D8F80000C005F6D5206A10F44070BF
:1008A00021D0A98801F4407181421CD0206A1F49DF
:1008B000012220F440700A6000220A602062C00712
:1008C00011D0FFF7ADFD074641F2883808E000BFC0
:1008D000FFF7A6FDC11B414502D90320BDE8F883FF
:1008E000206A8007F4D5206A696820F440700843C4
:1008F00020621EB1E06920F08050E0612878800716
:1009000005D56068A96820F44040084360602878F5
:10091000C00605D56068696920F4800008436060FE
:100920000020DBE70010024000700040400442421B
:100930002DE9F0470F46050061D0434E306800F0C6
:100940000700B84209D2306820F007003843306011
:10095000306800F00700B84251D128683B4C81074D
:1009600012D5400703D5606840F4E06060602878E5
:10097000000703D5606840F4605060606068A96853
:1009800020F0F000084360602878C00728D068682D
:10099000012810D02168022810D0890700292EDAFA
:1009A000616821F0030101436160FFF739FD804672
:1009B00041F288390DE021688903EFE78901EDE70D
:1009C000FFF72EFDA0EB0801494502D90320BDE841
:1009D000F0876068696800F00C00B0EB810FEFD120
:1009E000306800F00700B8420BD9306820F00700EB
:1009F00038433060306800F00700B84201D0012071
:100A0000E5E72878400705D56068E96820F4E060EC
:100A1000084360602878000706D56068296920F4DB
:100A2000605040EAC100606000F05EF86168084A0A
:100A3000C1F30311515CC8400649086006480068CC
:100A4000FFF7F8FD0020C2E700200240001002403E
:100A50009423000810000020080000200F220260EC
:100A60000C4A536803F003034360536803F0F00338
:100A70008360536803F4E063C36052684FF4E0633B
:100A800003EAD20202610448006800F0070008602F
:100A9000704700000010024000200240014800683A
:100AA00070470000100000200448054900684968AC
:100AB000044AC1F30221515CC84070471000002075
:100AC00000100240A4230008044805490068496852
:100AD000044AC1F3C221515CC84070471000002095
:100AE00000100240A423000889B00020164A049098
:100AF0000590069007900FCA8DE80F0013A0144AC6
:100B0000006808905168134801F00C03042B13D0BF
:100B1000082B11D1C1F383431DF80300CB0309D582
:100B2000526808ABC2F340429A5C0A4B5843B0FB90
:100B3000F2F001E0084A50430122B2EB517F00D1AC
:100B4000400009B070470000842300080102000043
:100B50000010024000127A0000093D002DE9F84F14
:100B6000040070D02078C04DC00749D06868C0F339
:100B70008100012807D06868C0F38100022809D1EC
:100B80006868C00306D52868800339D560680028E6
:100B9000E7D035E06068B0F5803F0BD010B1B0F51C
:100BA000A02F11D0286820F480302860286820F415
:100BB000802002E0286840F480302860606890B1AE
:100BC000FFF72EFC06460AE0286840F480202860E3
:100BD000F0E700BFFFF724FC801B642873D8286867
:100BE0008003F7D50CE0FFF71BFC064605E000BFCD
:100BF000FFF716FC801B6428F0D828688003F7D420
:100C000020789A4E80074FF001094FF0000839D53F
:100C1000686810F00C0F07D06868C0F381000228E4
:100C200009D16868C00306D42868800714D52069F4
:100C3000012808D110E02069B0B1C6F80090FFF794
:100C4000EFFB074605E00AE1FFF7EAFBC01B0228BD
:100C5000C4D828688007F7D52868616920F0F800B3
:100C600040EAC10028600DE0C6F80080FFF7D8FB1D
:100C7000074604E0FFF7D4FBC01B022823D82868EE
:100C80008007F7D4207800072CD57948A169D9B11D
:100C9000C0F80090FFF7C4FB074604E0FFF7C0FB75
:100CA000C01B02280FD8686A8007F7D571484FF437
:100CB000FA510068B0FBF1F0009000BF0098411EAF
:100CC0000091FAD20EE080E0C0F80080FFF7A8FBA8
:100CD000074604E0FFF7A4FBC01B022875D8686A2A
:100CE0008007F7D42078400760D5E8690027C00066
:100CF00008D4E86940F08050E861E869012700F015
:100D0000805000905C480168C90513D4016883468F
:100D100041F480710160FFF783FB824606E000BF6B
:100D2000FFF77EFBA0EB0A0064284ED8DBF800003A
:100D3000C005F5D5E06801280AD008B1052813D010
:100D4000286A20F001002862286A20F0040002E0EE
:100D5000286A40F001002862E06841F2883B98B1BF
:100D6000FFF75EFB82460BE0286A40F00400286231
:100D7000EEE700BFFFF754FBA0EB0A0159455AD834
:100D8000286A8007F6D50CE0FFF74AFB824605E0AB
:100D9000FFF746FBA0EB0A0159454CD8286A8007AB
:100DA000F6D41FB1E86920F08050E861E06988B3AB
:100DB0006968C1F38101022944D00228C6F8608025
:100DC00004D0FFF72DFB044638E034E0FFF728FBA2
:100DD000074604E0FFF724FBC01B02282BD8286835
:100DE0008001F7D4206AB0F5803F05D16868A1681A
:100DF00020F4003008436860D4E9080108436968BA
:100E000021F4741108436860C6F86090FFF708FB8E
:100E1000044606E025E000BFFFF702FB001B0228A6
:100E200009D828688001F7D51BE000BFFFF7F8FA62
:100E3000001B022802D90320BDE8F88F2868800132
:100E4000F4D40EE00128F7D06868226A00F48031FB
:100E5000914204D1616A00F47010884201D00120EF
:100E6000EAE70020E8E700000010024000004242EC
:100E7000800442421000002000700040704770471C
:100E800010B5044600680168C90716D04168C90753
:100E900013D040684007204607D5FFF7F0FF2168D0
:100EA0006FF004004860042002E0FFF7E7FF012034
:100EB000607421686FF00100486010BD2DE9F047B3
:100EC00091460C465FEA00084AD084B3D8F8000087
:100ED0004068400744D4404600F0A1FE4FF46162F0
:100EE0000546B0FBF2F1B0FBF2F302FB13503C23DA
:100EF000B0FBF3F0B5FBF2F6607002FB1650B0FBEE
:100F0000F3F203FB1200A070182931D31820B1FBB3
:100F1000F0F7B1FBF0F200FB12102070404600F039
:100F200077FE411C04D0A84202D9461B02E017E01C
:100F30004FF0FF36A7EB071000EB4000C0EB0010AE
:100F400005EBC0152946404600F0B8FE40B9701CBC
:100F500001D0711900E03146404600F09BFE10B10F
:100F60000120BDE8F0873946404600F0BEFD00E0B4
:100F70002170B9F1000F0BD0207800F0ABFD20708C
:100F8000607800F0A7FD6070A07800F0A3FDA0706D
:100F90000020E6E770B5040003D0607C002610B1A5
:100FA00005E0012070BD2674204600F043F80220C1
:100FB0006074204600F01AF9042578BB204600F042
:100FC000EBFD58BB2068416821F007014160A06833
:100FD00020B11748016821F0010101601448001F89
:100FE0000168A26821F46071114301606068411CCE
:100FF00004D10120FFF7BCFB80B1401E21688A6844
:1010000022F00F0242EA10428A602168CA6860F347
:101010000F02CA60204600F0D9FD08B16574C0E730
:10102000E67301206073A0736074002070BD00003F
:10103000306C004008B500680D49884217D1FFF7B1
:1010400091FB0C48C16941F00061C161C0690A4966
:1010500000F000600090012008600022114603208B
:10106000FFF74EFBBDE808400320FFF73BBB08BD80
:1010700000280040001002403C0442422DE9F041AB
:101080000D4604003BD0C5B3207C01283AD04FF078
:10109000010884F8108002206074E87872B300F0D0
:1010A00010FDE073687800F00CFD6073A87800F024
:1010B00008FDA073C2B2617BE07B00F0C0FD20732D
:1010C0002870204600F0ABFD4FF46161B0FBF1F1F8
:1010D000002518292DD91822B1FBF2F1A1EB01113D
:1010E00001EB4101C1EB011100EBC1163146204675
:1010F00000F0E4FD0427C8B90BE000E004E00120A3
:10110000BDE8F0810220FBE7E07368786073A8789F
:10111000CFE7204600F07CFD411C0AD0B04208D247
:1011200006490144204600F0B5FD10B167742574EE
:10113000E5E784F8118025740020E1E78051010083
:101140002DE9F0410D46040024D01DB3207C012878
:1011500023D04FF0010884F81080022060742878B2
:10116000EAB100F0AEFC4FF4616100FB01F6687873
:1011700000F0A7FCC0EB001006EB8006A87800F09A
:10118000A0FC35182946204600F098FD00260427CB
:1011900010BB0FE00120BDE8F0810220FBE74FF417
:1011A000616148436978C1EB011100EB8100A978C6
:1011B0004518E7E72068416821F0050141602046B5
:1011C00000F026FD411C0AD0A84208D2064901447D
:1011D000204600F05FFD10B167742674DAE784F8EA
:1011E000118026740020D6E78051010070B50400FC
:1011F0000AD02068416821F008014160FFF710F92A
:1012000005464FF47A7608E0012070BDFFF708F933
:10121000401BB04201D9032070BD20684068000720
:10122000F4D5002070BD7047704770B590F83C2031
:10123000012A19D0012400F83C4F0222427050F8D4
:101240003C3C5A689D6822F070060A68496832433F
:1012500025F0800529435A6050F83C2C9160447079
:1012600000210170084670BD022070BD10B5040059
:1012700003D094F83D0010B107E0012010BD00201C
:1012800084F83C00204600F00DF8022084F83D0070
:10129000211D206800F092FD012084F83D0000200F
:1012A00010BD000008B5154A0168154891420ED1DD
:1012B000C16941F00401C161C069002200F004006D
:1012C000009011461E20FFF71BFA1E2010E00D4A69
:1012D000914211D1C16941F01001C161C069002280
:1012E00000F01000009011463620FFF709FA362072
:1012F000BDE80840FFF7F6B908BD0000000800404F
:1013000000100240001000400168CA6842F001026B
:10131000CA600068816801F00701062903D00168EE
:1013200041F001010160002070470168CA6822F0A5
:101330000102CA600068016A41F21112114207D12C
:10134000016A9210114203D1016821F0010101608C
:101350000020704770B5044690F83C00012817D073
:10136000012584F83C50022084F83D002068826802
:1013700022F0770222F47F4282600868502830D041
:101380000DDC20284DD005DC98B310283BD148E077
:10139000022070BD302844D0402834D139E0602884
:1013A00028D0702806D0B0F5805F2CD0B0F5005F53
:1013B00029D10AE0CB68D1E90121206800F051FD74
:1013C0002068816841F0770109E0CB68D1E901210B
:1013D000206800F046FD2068816841F4804181600A
:1013E00011E0CA684968206800F010FE50212068AA
:1013F00007E016E0CA684968206800F018FE60211E
:10140000206800F038FD84F83D50002084F83C004E
:1014100070BDCA684968206800F0F8FD4021206866
:10142000EFE7226801461046EBE7704770B50446C7
:10143000006801694FF00005C943890715D4C168E8
:10144000C943890711D4E91E016101202077206872
:1014500080698007204602D0FFF7E7FF04E000F034
:10146000BFF8204600F041F9257720680169C9439B
:10147000490717D4C168C943490713D46FF0040161
:101480000161022020772068806910F4407F2046A7
:1014900002D0FFF7CAFF04E000F0A2F8204600F0F7
:1014A00024F9257720680169C943090716D4C16862
:1014B000C943090712D46FF00801016104202077A5
:1014C0002068C0698007204602D0FFF7AEFF04E025
:1014D00000F086F8204600F008F9257720680169B9
:1014E000C943C90617D4C168C943C90613D46FF0EC
:1014F00010010161082020772068C06910F4407F46
:10150000204602D0FFF791FF04E000F069F8204682
:1015100000F0EBF8257720680169C943C90708D1B5
:10152000C168C943C90704D1891E0161204600F082
:10153000FFF820680169C943090609D4C168C94395
:10154000090605D46FF0800101612046FFF76BFEAC
:1015500020680169C943490609D4C168C9434906DD
:1015600005D46FF040010161204600F017F92068B2
:101570000169C94389060BD4C168C943890607D4E8
:101580006FF0200101612046BDE87040FFF74CBEBE
:1015900070BD000000B585B000210091019102915D
:1015A000039100680B49884212D10B48816941F0D0
:1015B000080181618069694600F0080004904FF4D9
:1015C000007000900220019003900448FEF71AFE7C
:1015D00005B000BD0008004000100240000C0140B2
:1015E000704770B5044690F83C000D4601280DD0B8
:1015F000012684F83C60022084F83D0042B1042AB0
:1016000018D0082A2AD00C2A4DD139E0022070BD0A
:10161000206800F039FC2068816941F0080181618F
:101620002068816921F004018161206881692A694B
:10163000114311E0206800F057FC2068816941F4F3
:10164000006181612068816921F480618161206885
:1016500081692A6941EA0221816124E0206800F061
:1016600079FC2068C16941F00801C1612068C16945
:1016700021F00401C1612068C1692A69114311E0A8
:10168000206800F09BFC2068C16941F40061C161E1
:101690002068C16921F48061C1612068C1692A693B
:1016A00041EA0221C16184F83D60002084F83C00D9
:1016B00070BD10B5040003D094F83D0010B107E0F0
:1016C000012010BD002084F83C00204600F00CF8FA
:1016D000022084F83D00211D206800F06FFB0120EE
:1016E00084F83D00002010BD7047704710B50446D7
:1016F0000068012200F0A8FB0B492068884202D054
:101700000A49884203D1416C41F400414164206898
:10171000816801F00701062903D0016841F0010149
:101720000160002010BD0000002C01400034014089
:1017300010B5044600681449884201D1FEF760FFE5
:1017400012492068884203D104211148FEF75BFE4C
:1017500010492068884215D10F484188491C89B238
:101760004180632902D90021418001E0322901D260
:1017700089B201E0C1F16301018008040549C00B91
:101780004031086010BD000000140040001000400F
:10179000000C014000080040000000207047FEE7F8
:1017A00010B5002000F00AF8012000F007F8BDE8AD
:1017B000104040F2262000F0B2B8000070B5164D7F
:1017C0000446002220212846FEF724FE204600F091
:1017D00041F8012210212846FEF71CFE022000F0ED
:1017E0009EF8002210212846FEF714FE2007000E66
:1017F00000F030F8012210212846FEF70BFE0220EF
:1018000000F08DF8002210212846FEF703FEBDE807
:1018100070400A2000F083B80010014020B1102968
:1018200008D2C031C8B206E0102901D28031F9E7F0
:101830008F2000E0CF20FFF7C1BF10B52820FFF7B1
:10184000BDFF0C20FFF7BAFFBDE81040322000F0CA
:1018500066B8000070B5134D044600220F212846DB
:10186000FEF7D8FDE00604D5012208212846FEF740
:10187000D1FDA00604D5012204212846FEF7CAFDA9
:10188000600604D5012202212846FEF7C3FD20068A
:1018900006D52846BDE8704001221146FEF7BABDC4
:1018A00070BD00000010014070B5164D04460122C5
:1018B00020212846FEF7AEFD2046FFF7CBFF012290
:1018C00010212846FEF7A6FD022000F028F800228D
:1018D00010212846FEF79EFD2007000EFFF7BAFFF5
:1018E000012210212846FEF795FD022000F017F88E
:1018F000002210212846FEF78DFDBDE870400A2029
:1019000000F00DB80010014070B50546002402E05B
:10191000FFF7CAFF641C285D0028F9D170BD0021C3
:1019200004E00222521C3C2AFCDB491C8142F8D311
:10193000704700002DE9F04186B00025234800954E
:10194000019502950395816941F0040181618169E6
:1019500001F004010491816941F00801816181690C
:1019600001F008010491816941F0100181618069F1
:10197000174F00F0100048F2040604900022314690
:101980003846FEF747FDDFF84C8000223F214046F5
:10199000FEF740FD0124CDE9004569460E4802945A
:1019A000FEF730FC0096CDE90145694638460394C0
:1019B000FEF728FC3F208DE831006946404603943D
:1019C000FEF720FC06B0BDE8F081000000100240E8
:1019D000000C014000100140000801401CB500242B
:1019E00016480194144900940160611E41604FF44F
:1019F00080718160FFF7CEFA0B208DF804003B2048
:101A00008DF8050032208DF80600002201A90B4850
:101A1000FFF796FB01208DF8000005208DF80100EE
:101A200019208DF802008DF8034000226946034812
:101A3000FFF724FB1CBD00000028004068000020C8
:101A400010B58EB000240794089409940A940B945E
:101A50001C2168460C94FEF78EFB1748154901605F
:101A600041F26F71C0E901146321C0E9031484617C
:101A7000FFF7FCFB4FF48050079007A90E48FFF7D3
:101A800069FC0D48FFF715FE0B940BA90A480C944E
:101A9000FFF7CBFB602000903120CDE901040C2240
:101AA000694605480494FFF79CFD0348FFF772FD63
:101AB0000EB010BD000800407C000020FEE770471B
:101AC0007047010901EB810100F00F0000EB4100BC
:101AD000C0B27047002102E00A38C0B2491C0A288F
:101AE000FAD2090740EA116070472DE9F041044637
:101AF0000025C07B627BA37B42E0012A16D0032A2B
:101B000014D0052A12D0072A10D0082A0ED00A2A8B
:101B10000CD00C2A0AD0042A10D0062A0ED0092A8A
:101B20000CD00B2A0AD0022A0DD028E01F2B0CD390
:101B30000C2A05D101221346401C20E01E2B04D3A1
:101B40000123521C1BE01C2B02D203F1010316E0FF
:101B500011D183B29E0710D16426B3FBF6F706FBC2
:101B6000173636B94FF4C876B3FBF6F706FB1733D2
:101B70001BB91D2303E01D2B01D1032201236D1C82
:101B80008D42BAD3D1B2E0736173DAB2A27300F0BE
:101B900056F82073BDE8F08170B50446FEF740FCAE
:101BA00005464FF47A7606E0FEF73AFC401BB04259
:101BB00001D9032070BD206840688006F4D52068F4
:101BC000416841F010014160002070BD70B50446CD
:101BD0000068416821F010014160FEF721FC0546D4
:101BE0004FF47A7607E000BFFEF71AFC401BB042C4
:101BF00001D9032070BD206840688006F4D500201C
:101C000070BD00000148FFF73BB9000068000020EC
:101C10000168086A496A89B241EA00407047006871
:101C200081698AB2C1698BB2816989B28A4203D063
:101C3000C06961F31F40704743EA02407047F0B546
:101C40006424C1EBC1030927A500072603EB011398
:101C50000329B3FBF7F100F5FA60114401440AD2FD
:101C6000401EB0FBF4F201EB9001B0FBF5F0891AD5
:101C70000844001D08E0B0FBF4F201EB9001B0FB5A
:101C8000F5F0891A0844801CB0FBF6F106FB110040
:101C9000C0B2F0BD70B50D4606460024FFF77CFFCC
:101CA00048B93168280C08623168A8B248623046E9
:101CB000FFF78CFF00B10124204670BD70B50D46C2
:101CC00006460024FFF768FF48B93168280C886190
:101CD0003168A8B2C8613046FFF778FF00B101242F
:101CE000204670BD7047704770B596B02821684691
:101CF000FEF741FA14210AA8FEF73DFA18210FA8B1
:101D0000FEF739FA01240A2000901020CDE90440A2
:101D10000E4800250226CDE90850CDE90646684662
:101D2000FEF71CFF0F20CDE90A06A002CDE90C50FA
:101D300002210AA80E95FEF7FBFD6002CDE90F40D7
:101D40000FA8FEF77FFD16B070BD000000003C201C
:101D50000D48016841F00101016041680B4A1140E2
:101D6000416001680A4A11400160016821F4802144
:101D70000160416821F4FE0141604FF41F01816060
:101D80000449C00308607047001002400000FFF8DB
:101D9000FFFFF6FE08ED00E00148FFF747BB00003B
:101DA0007C0000200148FFF741BB0000BC00002080
:101DB0000148FFF73BBB0000FC000020F0B50268C3
:101DC0001C4B1D4D1D4E1E4F1E4C4FF0804C98421B
:101DD00009D0A04207D0604505D0A84203D0B04248
:101DE00001D0B84204D122F0700E4A6842EA0E02D5
:101DF000984209D0A04207D0604505D0A84203D040
:101E0000B04201D0B84203D122F44075CA682A43D7
:101E10004D6922F080022A4302608A68C2620A6821
:101E20008262984201D0A04201D109690163012177
:101E30004161F0BD002C014000040040000800405A
:101E4000000C00400034014010B501F01F030121D7
:101E5000046A99408C430462016A9A40114301620A
:101E600010BD10B5846842EA032224F47F440A437B
:101E70002243826010BD826822F070020A4342F061
:101E80000701816070470000F0B5026A22F001028C
:101E90000262036A42688469124E24F073050C687A
:101EA0002C4323F002058B682B430D4DA84201D033
:101EB000B04205D123F00807CB683B4323F004036D
:101EC000A84201D0B04205D14D6922F440721543B9
:101ED0008A692A4342608461496841630362F0BDB4
:101EE000002C014000340140F0B5026A22F01002DB
:101EF0000262026A436884690D6824F4E64444EA95
:101F000005248D6822F0200242EA05120F4D104E82
:101F1000A84201D0B04206D1CF6822F0800242EA46
:101F2000071222F04002A84201D0B04207D14D6909
:101F300023F4406343EA85038D6943EA85034360E4
:101F40008461496881630262F0BD0000002C014099
:101F500000340140F0B5026A22F480720262026A23
:101F60004368C46922F4007224F073050C68124EB1
:101F70002C438D6842EA05220E4DA84201D0B042A2
:101F800006D1CF6822F4006242EA072222F480627E
:101F9000A84201D0B04207D14D6923F4405343EA2F
:101FA00005138D6943EA05134360C4614968C16341
:101FB0000262F0BD002C01400034014030B5026ADD
:101FC00022F480520262046A4268C3690D6823F4F5
:101FD000E64343EA05238D6824F4005444EA0534BB
:101FE000084DA84202D0084DA84204D14D6922F400
:101FF000804242EA85124260C3614968016404621A
:1020000030BD0000002C01400034014010B5036ACF
:10201000046A24F001040462846924F0F00444EAB0
:10202000021423F00A020A438461026210BD10B553
:10203000036A23F0100303628369046A23F4704384
:1020400043EA023224F0A00343EA011182610162F3
:1020500010BDFEE70FB4084B10B504A902AA0398FF
:1020600000F02CF8044602A9002000F0D1F8204628
:1020700010BC5DF814FB0000112200080907090ECE
:10208000002804DB00F1E02080F80014704700F025
:102090000F0000F1E02080F8141D704702E008C82E
:1020A000121F08C1002AFAD170477047002001E0D2
:1020B00001C1121F002AFBD1704700002DE9FF4F1C
:1020C00089B09B460446002506E025280BD05A46D9
:1020D0000B999047641C6D1C20780028F5D10DB039
:1020E0002846BDE8F08F0027B8460122474900E0A6
:1020F000074314F8013F203B02FA03F00842F7D1EE
:1021000020782E2819D114F8010F47F004072A2847
:102110000ED06FF02F022078A0F1300109290CD8E1
:1021200008EB880102EB410100EB0108641CF2E7B7
:102130000A98641C50F8048B0A9020780028CED0AE
:10214000642808D0692806D075281ED05A460B99F5
:1021500090476D1C58E00A994FF00A0901C90A918D
:10216000002802DA40422D2102E0390504D52B2156
:102170008DF82010012103E0F90704D02021F7E7B2
:102180008A4608AE0DE00021FAE70A994FF00A09E5
:1021900001C90A91F7E74946FDF7F8FF303106F823
:1021A000011D0028F7D1ADEB060000F120097807EA
:1021B00001D44FF00108C84502DDA8EB090000E09A
:1021C00000208046002706E008A85A46C05D0B990B
:1021D00090476D1C7F1C5745F6DB04E030205A46C3
:1021E0000B9990476D1CB8F10001A8F10108F5DCCE
:1021F00005E016F8010B5A460B9990476D1CB9F192
:102200000001A9F10109F4DC641C65E7092801005B
:102210000A68531C0B601070704700008AB00025DC
:102220001426FEF7F5F9FFF75FFDFFF783FB4B4838
:102230004949002401604A49C0E901144FF4804132
:10224000C0E9034144618461C4610462FEF7EEF8B1
:10225000FFF7C4FBFFF7F4FB40480394A830414963
:102260000494016040F6C311C0E9011442F20F71F9
:102270008461C160FEF7FAFF3848039403A9A830CF
:102280000494FEF7D2FF35480994A830FFF73CF8D4
:1022900032486830FFF738F830480C216830FFF7D3
:1022A00025FAFFF7CAFA761E16F0FF06FBD12E4C70
:1022B00040F2DC56FFF774FA2848002209A954308E
:1022C000FEF7FCFD9DF8260000909DF825309DF856
:1022D000242026A105A8FFF7BDFE00210846FFF730
:1022E0009DFA05A8FFF710FB01212046FEF786F8AE
:1022F00000281A4800F1A80002D0FFF705F801E015
:10230000FFF713F86D1CEDB2012D17D0022D18D078
:10231000032D19D0042D1AD000253B462A4616A1BC
:1023200005A8FFF797FE00210120FFF777FA05A81F
:10233000FFF7EAFA3046FDF753FFBBE7FEF7D4FBA1
:1023400007E0FEF7ABFB04E0FEF7AEFB01E0FEF7B3
:10235000BBFB0746E1E700000058004014000020E6
:10236000A0860100001000400008014025643A25C5
:10237000643A2564000000004E3D25642C463D254E
:102380006400000002030405060708090A0B0C0D8F
:102390000E0F1010000000000000000001020304F6
:1023A000060708090000000001020304CC2300080E
:1023B00000000020140000009C200008E02300081A
:1023C000140000202C050000AC20000800000000D4
:1023D0000100000010000000000000000024F400D4
:0400000508000131BD
:00000001FF
