:020000040800F2
:10000000000F0020C50000088D0F0008210F000818
:1000100000000000000000000000000000000000E0
:10002000000000000000000000000000E9170008C8
:100030000000000000000000D50F0008EB170008CA
:10004000D700000800000000D7000008D700000813
:10005000D7000008D7000008D7000008D700000824
:1000600000000000D7000008D7000008D7000008F3
:10007000D7000008D7000008D700000800000000E3
:10008000D70000080000000000000000D7000008B2
:1000900000000000D7000008D7000008D7000008C3
:1000A000000000009515000800000000D7000008BF
:1000B0000348854600F046F800480047A92B000891
:1000C000000F00200448804704480047FEE7FEE791
:1000D000FEE7FEE7FEE7FEE751180008B100000862
:1000E00030B50B46014600202022012409E00D46D0
:1000F000D5409D4205D31D469540491B2546954058
:1001000040191546521E002DF1DC30BDD2B201E07F
:100110000270401C491EFBD270470022F6E710B562
:1001200013460A4604461946FFF7F0FF204610BD65
:100130000321001D401E037812021A43491EF9D5FF
:1001400010467047064C0125064E05E0E36807CCD3
:100150002B430C3C98471034B442F7D3FFF7ACFF65
:10016000143100083431000810B509200122102193
:10017000C00600F007F910BD10B509200221C00625
:1001800000F0FCF810BD00B5002200F001F800BD41
:1001900030B50E4B05465C7A0120012C15D8587AF3
:1001A00000241C54587A8000C01845605D7A1846B7
:1001B00008302A54587A421C5A72303008703A205B
:1001C00048702F208870CC70002030BDB000002017
:1001D00070B50024014620314A78022A03D0042158
:1001E0008163012416E0026813680E25AB43136097
:1001F000026813685B085B0013600122056C1346FC
:10020000AB40C56B6B604A7000220A70416B0029DD
:1002100000D08847204670BD31B500F0B9F8009C89
:100220000546601C00D0641C00F0B2F8401BA042E0
:10023000FAD338BDF8B500238DE001249C40A446D4
:1002400022407DD04C68022C01D0122C0CD1DC084D
:10025000A40027183C6A5D07ED0E0F26AE40B4439C
:100260000E69AE4026433E6205685E000324B4403A
:100270000F79A543BF07BF0FB7402F4307604D68F5
:10028000012D05D0022D03D0112D01D0122D0ED13C
:100290008568CF68A543B7402F43876047686546A8
:1002A000AF430D79ED06ED0F9D403D434560C568B8
:1002B000A5438C68B4402C43C4604C68E40049D525
:1002C000284CA56901263543A561A4699D083440E1
:1002D0000094254CAD002F19BC689D072E0F0F25EB
:1002E000B540AC430925ED06A84201D100250FE039
:1002F0001E4DA84201D101250AE01D4DA84201D1A1
:10030000022505E01B4DA84201D1032500E005258B
:10031000B5402543BD60184C25684E689543F603EB
:1003200000D51543256065684E689543B60300D532
:1003300015436560A5684E689543F60202D500E056
:1003400008E01543A560E5684E689543B60200D500
:100350001543E5605B1C0A681446DC4000D06CE77E
:10036000F8BD0000001002400000014000040048F9
:1003700000080048000C00480004014042694A405F
:1003800042617047002A01D08161704781627047E5
:1003900001480068704700002400002002480168FE
:1003A000491C0160704700002400002010B5064879
:1003B0000168102211430160002000F007F800F0EE
:1003C00017F8002010BD00000020024010B50446C0
:1003D00000F0C6F87D21C900FFF782FE00F088FD1D
:1003E00000222146501E00F021F8002010BD000020
:1003F00008B5084881690122114381618169114072
:100400000091C26901040A43C261C06908400090BA
:1004100008BD000000100240C106C90E012088403E
:10042000014908607047000000E100E010B500F0ED
:10043000AFFD10BDF8B5054644480E460068C0073C
:10044000C00FB0420AD2414801684908490031430F
:1004500001600068C007C00FB0425CD128783C4CF6
:10046000800705D56068F0218843A968084360606B
:100470002878C0073FD06868012813D02168022877
:1004800013D08907002946DA616889088900014389
:100490006160FFF77DFF6968074601290DD00229D9
:1004A00017D024E021688903ECE78901EAE7FFF728
:1004B0006FFFC11B2748814217D860680007800F73
:1004C0000128F4D117E0FFF763FFC11B21488142E7
:1004D0000BD860680007800F0228F4D10BE0FFF70B
:1004E00057FFC11B1B48814201D90320F8BD60683A
:1004F0000007800FF3D115480168C907C90FB14241
:100500000BD9016849084900314301600068C00700
:10051000C00FB04201D00120F8BD2878400706D5B1
:100520006068072109028843E9680843606000F0B9
:100530001DF86168084A0906090F515CC84007495F
:1005400008600020FFF742FF0020F8BD00200240B5
:1005500000100240881300005630000828000020D8
:1005600001480068704700002800002010B512A361
:100570000FCB88B06C460FC413A30FCB0FC4164922
:100580004A680C20134603401448042B0FD0082B54
:100590000DD193021B0F6C46E45CC96A04AB0907DA
:1005A000090F595CD20304D5FFF79AFD604308B0E8
:1005B00010BD0B486043FAE702030405060708096B
:1005C0000A0B0C0D0E0F101001020304050607089C
:1005D000090A0B0C0D0E0F100010024000127A00D9
:1005E00000093D00FEB504460078D04DC00747D055
:1005F00068680007800F012807D068680007800F2F
:10060000022809D16868C00306D52868800337D559
:10061000606800287ED033E0012062680004012A6F
:1006200011D08100002A01D0052A10D02A68824307
:100630002A602868884328606068002814D0FFF783
:10064000A7FE06460CE0296801432960F4E72A6802
:100650000A432A60F7E7FFF79BFE801B64286FD8E8
:1006600028688003F7D50BE0FFF792FE064604E00A
:10067000FFF78EFE801B6428F1D828688003F7D42A
:1006800020780126800700283BDA68680007800F81
:1006900007D068680007800F022809D16868C00386
:1006A00006D42868800715D5E068012832D111E00A
:1006B000E0680028286815D030432860FFF768FEFE
:1006C000074604E0FFF764FEC01B0228C7D828686D
:1006D0008007F7D52868F82188432169C9000843B5
:1006E00028600EE0400840002860FFF751FE0746F2
:1006F00004E0FFF74DFEC01B0228B0D82868800731
:10070000F7D42078000724D5E0690028686A10D063
:10071000304300E008E16862FFF73AFE074604E074
:10072000FFF736FEC01B022899D8686A8007F7D504
:100730000FE0400840006862FFF72AFE074605E028
:100740009DE0FFF725FEC01B022888D8686A800755
:10075000F7D4207804274007002860DA00200190B1
:10076000E869C00008D4E969B8060143E961E969AC
:1007700001400120009101906D480168C90511D424
:100780000168821511430160FFF702FE009005E049
:10079000FFF7FEFD0099401A642870D8644800688D
:1007A000C005F5D5A06801280AD0002801D0052889
:1007B00010D0286A400840002862286AB84301E047
:1007C000286A30432862A068002812D0FFF7E0FDB5
:1007D00000900AE0286A38432862F1E7FFF7D8FD65
:1007E0000099411A5348814249D8286A8007F5D5B3
:1007F0000DE0FFF7CDFD009006E0FFF7C9FD009981
:10080000411A4C4881423AD8286A8007F5D40198A9
:10081000002804D0E969012000078143E9612078BC
:10082000C00635D5606901280CD0401D686B23D007
:1008300038436863686B400840006863FFF7A8FDB1
:10084000064622E0686B38436863686B3043686330
:10085000FFF79EFD064604E0FFF79AFD801B022885
:100860005BD8686B8007F7D5686BF8218843A1696E
:10087000C900084368630BE0B8436863F4E74CE0E1
:10088000FFF786FD801B022847D8686B8007F7D4E6
:10089000206A002846D069680907890F022943D0D9
:1008A000012636060228286805D0B0432860FFF7E5
:1008B0006FFD044633E0B0432860FFF769FD07464B
:1008C00004E0FFF765FDC01B022826D828688001D8
:1008D000F7D4E86AE16A000900010843E862616A46
:1008E000A06A084369683D22120491430843686086
:1008F000286830432860FFF74BFD044604E0FFF70B
:1009000047FD001B022808D828688001F7D509E0B8
:10091000FFF73EFD001B022801D90320FEBD286819
:100920008001F5D40020FEBD0120FEBD0010024074
:10093000007000408813000070474030407F7047CF
:10094000F8B504460068426881684B0605D4CB07B9
:1009500003D0530601D5E16C04E08B0705D51306DF
:1009600003D5216D20468847F8BDFF236133194226
:10097000FAD09306F8D523464D064033002D09DA08
:100980005D7F032D3CD0256E042635432566C56862
:10099000856800958E060125002E08DA266E2E4306
:1009A00026668668009606684027BE430660C8052E
:1009B00006D5206E082108432066206880680090D4
:1009C000206E0028D0D020684168E026B143416005
:1009D0005D77900718D020684168890889004160D8
:1009E000A06D0B4D002803D04563A06DFFF7F0FB11
:1009F000606D0028B8D04563606DFFF7E9FBF8BD76
:100A0000C16880680090F8BD2046FFF795FFF8BDEB
:100A1000A5150008F8B5040007D000262546403586
:100A2000A662687F002802D005E00120F8BD2E777D
:100A3000204600F04BF802236B77206801684022C3
:100A4000914301600721E0680902884201D9002230
:100A500001E0012212030F273F02B84202D0884270
:100A600000D0A662276B002F05D1884201D92363ED
:100A700001E001202063A16860686369084321697F
:100A8000194308430123A1695B0219400843E16946
:100A90000843216A0843A16A084321680860616B22
:100AA000606AA36908431B0C0427E1683B401943B3
:100AB00008432168104348602068C1697A02914365
:100AC000C1612666012068770020F8BD10B586B0A8
:100AD000044614216846FFF720FB15492068884228
:100AE00024D11448826981140A43826182690A40D0
:100AF0000592426949010A434261406908400590F4
:100B0000E020009002200190002103200390029138
:100B1000049109206946C006FFF78CFB00221146AC
:100B20001920FFF783FC1920FFF776FC06B010BDF3
:100B30000030014000100240FFB506460446403632
:100B4000307F002781B00D46012809D00120307781
:100B5000FFF71EFC0090707F012804D002279DE063
:100B6000022005B0F0BD002D72D0039800286FD090
:100B70000320707700202066A5630399A18703995D
:100B8000E1872064B080F0802065E0640121A068E6
:100B9000C903884205D120680168012292031143EC
:100BA000016020680168490603D4016840221143AE
:100BB00001600720E16800028142606823D90028B3
:100BC00002D0E08F01281AD121682888C86005E08A
:100BD00020688168890706D52988C160E08F401E9A
:100BE000E087AD1C0BE0049800283ED0401C06D0E6
:100BF000FFF7CEFB0099411A0498814235D2E08F6D
:100C00000028E5D136E0002802D0E08F01282ED15F
:100C1000E08F012803D921682888C8600CE021688A
:100C2000287808730FE020688168890711D5E18F63
:100C3000012906D92988C160E08F801EE087AD1C9C
:100C400015E029780173E08F401EE0876D1C0EE0EF
:100C500023E00498002808D0401C08D0FFF798FB38
:100C60000099411A0498814201D3032716E0E08FCE
:100C70000028D8D12046009A049900F09CFC002856
:100C800001D020202066A068002803D12068C16818
:100C900080680090206E002800D001270120707726
:100CA0000020307738465CE7FFB5044683B001206A
:100CB000254640350090287F00270E4601280FD09A
:100CC00001202877FFF764FB0190687F61680128A5
:100CD0000DD0CA1FFD3A08D1A168002905D102E054
:100CE000022007B0F0BD042801D00227FAE0002E50
:100CF0007CD005980028FBD006980028F8D0687FA3
:100D0000042801D005206877002020660599216419
:100D10000699E9800699A980A6630699E187069954
:100D2000A187E06420650723E1681B02994202D88D
:100D3000E888012806D920684268012109038A430E
:100D4000426005E0206841680122120311434160BE
:100D500020680168490603D40168402211430160FC
:100D6000E1686068994242D9002802D0E08F0128EA
:100D700035D121683088C860E08F401EE087B61CFE
:100D80002DE0009800280ED0E08F00280BD02068BE
:100D90008168890707D53188C160E08F401EE087F0
:100DA0000020B61C0090E88800280ED020688168DA
:100DB000C9070AD0C068059908800598801C05906D
:100DC000E888401EE880012000900C98401C06D066
:100DD000FFF7DEFA0199411A0C9881426DD2E08F3B
:100DE0000028CED1E8880028CBD16EE079E0002839
:100DF00002D0E08F012862D1E08F012807D9216855
:100E00003088C860E08F801EE087B61C57E02168FC
:100E100030780873E08F401EE087761C4FE0009822
:100E2000002818D0E08F002815D020688168890735
:100E300011D5E18F012906D93188C160E08F801E6C
:100E4000E087B61C05E031780173E08F401EE08733
:100E5000761C00200090E888002824D02068816853
:100E6000C90720D0E988012912D9C06805990880EE
:100E70000598801C0590E888801EE880E888012895
:100E80000FD820684168012212031143416008E035
:100E9000017B059801700598401C0590E888401E6C
:100EA000E880012000900C98401C08D0FFF770FAF1
:100EB0000199401A0C99884201D3032712E0E08F70
:100EC0000028ACD1E8880028A9D12046019A0C99C5
:100ED00000F071FB002801D020202066206E002841
:100EE00000D0012701206877002028773846F8E6EF
:100EF000094910B5401E884201D9012010BD074C98
:100F000060610321081F00F043F80020A061072062
:100F10002061002010BD0000FFFFFF0000E000E0A6
:100F2000FEE7000010B504490448FFF72CF9024918
:100F3000491E087010BD00001500002000000020B0
:100F400010B511480F490160FF21053141600021B2
:100F50000722816012020161C2604161C161012208
:100F6000016252024162826181620722C2620163B0
:100F700008214163FFF74EFD002801D0FFF7FCF880
:100F800010BD000000300140340000207047000018
:100F90008307FF22DB0E9A408907090E994000283B
:100FA0000BDA0007000F0838830808489B00181860
:100FB000C36993430B43C3617047830804489B0094
:100FC0001B181868904308431860704700ED00E054
:100FD00000E400E0704700007CB5174DFFF7C4F84F
:100FE0000024FF2000F026FB641C0A2CF9DB00F033
:100FF000C9FA402069460870002048708870C8709F
:1010000008719520487100246E46305D00F012FB97
:10101000641C062CF9DB00E06D1E00F0F3FA0128D9
:1010200001D0002DF8D1FFF79FF8FF2000F002FB60
:101030000249012048707CBDFF1F00001B000020FA
:1010400010B5064C3220207000F0DCFA00F0DAFA1D
:10105000FF2802D021780029F8D110BD1A00002005
:10106000F8B50446104D0A200E46287000F0CAFA62
:10107000FF2803D0FE2805D00020F8BD28780028DE
:10108000F4D1F9E72746651C00F0BCFA38706C1CF7
:1010900000F0B8FA2870B61EF4D100F0B3FA00F0F0
:1010A000B1FA0120F8BD00001900002070B50C460F
:1010B0000546FFF7C5FFFF2801D0FF2070BD284679
:1010C00000F0B8FA200E00F0B5FA2002000E00F091
:1010D000B1FA2004000E00F0ADFAE0B200F0AAFA76
:1010E0000020402D06D0482D06D000F0A3FA4C2D4C
:1010F00006D007E0952000E0872000F09BFA01E091
:1011000000F080FA0A2400F07DFA0106D6D5641EAC
:101110002406240EF7D170BD70B50E460446002596
:10112000FFF78EFFFF2827D1304600F083FAFD2E0F
:101130001ED00026207800F07DFA6078A41C00F014
:1011400079FA761E3606360EF4D100F05BFA00F01E
:1011500059FA00F057FA0446C006C00E052803D01D
:101160006D1CEDB2402DF4D900F04CFA0028FBD0F4
:10117000E006C00E052801D0002070BD012070BD22
:10118000F8B5002801D00120F8BD4B480078800751
:1011900002D549480078F8BDFFF71EFF00F0F2F9CC
:1011A000002421464020FFF781FF012872D1434EE1
:1011B00064203070FF21AB314820FFF777FF012812
:1011C0000DD000217720FFF771FF012841D80021C1
:1011D0006920FFF76BFF01283BD8022440E000257F
:1011E0006F4600F00FFA78556D1CEDB2042DF8D360
:1011F0006846807801284DD16846C078AA2849D130
:10120000450700217720FFF751FF012805D829461F
:101210006920FFF74BFF002802D030780028F0D17A
:101220003078002836D000217A20FFF73FFF0028D1
:1012300030D1002400F0E6F93855641CE4B2042CE7
:10124000F8D368460078400601D5062422E002243F
:1012500020E0012401E0022C02D00021412007E01F
:1012600000217720FFF722FF012805D800216920FF
:10127000FFF71CFF002802D030780028EBD130782F
:10128000002806D0012149025020FFF70FFF002857
:1012900000D00024084DAC70FEF766FF00F0B2F9F4
:1012A000002C04D0287840084000287001E000207D
:1012B00068702878F8BD00001B000020190000208D
:1012C0007FB515460E46002802D0042004B070BD3C
:1012D00001244B48052E04D00078C00717D0032006
:1012E000F4E747492A784978002A05D0012A08D02E
:1012F000022A09D0042480E0002906D00021417090
:1013000003E0FFF769FE00E06970002475E000F07B
:1013100039F90B2E4CD006DC002E44D0012E07D01C
:10132000022E65D13BE00C2E45D00D2E60D150E051
:1013300000214920FFF7BAFE00285AD11021684643
:10134000FFF78EFE002854D06846007880090128F7
:1013500068461CD0407901076846807A090FC009A9
:1013600009186846407A8007400F09186846007AD5
:1013700082096846C0798000121868468079800723
:10138000000D1018401CC91F884028601FE0417ADA
:10139000007A0002401C081800048009F5E70120CB
:1013A0004002288013E0FFF74BFEFF280FD020E01B
:1013B0000021492001E000214A20FFF777FE0028A4
:1013C00017D110212846FFF74BFE002811D000242A
:1013D0000FE000217A20FFF769FE002808D10024E1
:1013E00000F010F92870641CE4B26D1C042CF7D3D3
:1013F0000424FEF7B9FE00F005F9204666E7000078
:101400001B000020F8B51C4615460E46002807D1E3
:10141000002C05D023480178C90703D00320F8BD6C
:101420000420F8BD8078400700D4550200F0AAF8E7
:1014300001277F02012C294605D05220FFF736FEF6
:10144000002810D01FE05120FFF730FE002821D1E6
:1014500039463046FFF704FE00281BD0FEF784FE15
:1014600000F0D0F81CE039463046FFF7F9FD0028BF
:1014700005D0FF36FF36641E0236002CF3D1002162
:101480004C20FFF713FEFEF76FFE00F0BBF8002CB8
:1014900004D105E0FEF768FE00F0B4F80120F8BDC5
:1014A0000020F8BD1B000020002801D0012070475B
:1014B00001480078704700001B000020F8B51C466A
:1014C00016460F46002807D1002C05D02C4D287851
:1014D000C00703D00320F8BD0420F8BD28784007DA
:1014E00001D50220F8BDA878400700D4560200F0CC
:1014F00049F8012C11D0A878800707D50021772062
:10150000FFF7D4FD21465720FFF7D0FD3146592083
:10151000FFF7CCFD002811D022E031465820FFF71C
:10152000C5FD002824D1FE213846FFF7F5FD00282F
:101530001ED0FEF719FE00F065F81EE0FC213846CB
:10154000FFF7EAFD002805D0FF37FF37641E02379A
:10155000002CF3D1FD210020FFF7DEFD002807D08D
:10156000FEF702FE00F04EF8002C06D00120F8BD78
:10157000FEF7FAFD00F046F8F8E70020F8BD00009D
:101580001B00002010B5092000221021C006FEF724
:10159000F9FE10BD10B50248FFF7D2F910BD0000EA
:1015A0003400002010B5406A002146221152C18744
:1015B000FFF7C2F910BDF8B50F460B46154600926D
:1015C000032104460022C90200F044F82026002826
:1015D00012D13B46002280212046009500F085F87C
:1015E000002809D103213B460022490220460095EC
:1015F00000F030F8002803D0206E3043206603202E
:10160000F8BD00000EB5FF2168460172002101718E
:101610000748FFF792F90128FAD1642000900123CE
:1016200001AA02A90248FFF73FFB684600790EBDF8
:101630003400002001B50648FFF77FF90128FAD1F0
:101640006423012269460248FFF776FA08BD0000CC
:1016500034000020F8B51D4617460E4604463DE00E
:10166000032149028E4205D1002F03D1017B684638
:1016700001700078681C31D0002D05D0FEF788FE7F
:101680000699401AA84229D320684168E022914374
:1016900041606068C11FFD390CD10121A068C903F8
:1016A000884202D04911884204D120680168402252
:1016B000914301600120A16A4003814207D1216862
:1016C0000A6882430A6021680A6802430A600120AE
:1016D00040346077002020770320F8BD20688168BF
:1016E0003140B942BCD10020F8BDF8B51D461746BF
:1016F0000E46044633E0681C31D0002D05D0FEF7BD
:1017000047FE0699401AA84229D320684168E02282
:10171000914341606068C11FFD390CD10121A0686F
:10172000C903884202D04911884204D12068016867
:101730004022914301600120A16A4003814207D108
:1017400021680A6882430A6021680A6802430A60C5
:10175000012040346077002020770320F8BD206806
:1017600081683046884304D00020B842C3D10020AD
:10177000F8BD0120F9E710B509200221C006FEF7E7
:10178000FDFD10BD01B50A23012269460348FFF79C
:10179000D3F9002801D0FFF7EEFF08BD3400002088
:1017A00070B509240D460646E406012210212046A4
:1017B000FEF7E8FD012211460948FEF7E3FD0A2382
:1017C0002A4631460748FFF7B7F9002801D0FFF74E
:1017D000D2FF002210212046FEF7D4FD70BD00008C
:1017E0000014004834000020704710B5FEF7D6FD05
:1017F00010BD30B591B030216846FEF78EFC002553
:101800000D95012003900E95102009950224049057
:101810000F9507200094C0040A900C9508940B952E
:101820006846FEF7DFFE002801D0FEF7A5FC072082
:101830000CA931C1012080020F9001210CA8FEF7F4
:10184000F9FD002801D0FEF797FC11B030BD000073
:10185000134801680122114301604168114A114097
:1018600041600168104A1140016001680122920440
:101870009143016041683F22120491434160C16A73
:1018800009090901C162016BFF221432914301630E
:10189000416B4908490041630021816070470000A5
:1018A000001002400CB8FF08FFFFF6FEF0B50E4630
:1018B000111AFFB04904CEB00C0C1D463146D29F20
:1018C00000F01CF90122394601A800F0EBFC0020D1
:1018D00069460880AD1B17E0CCAB22468CA901A855
:1018E00000F0B8FD2B2000F019F80221684600F046
:1018F0002FF92C2000F012F821468CA8FFF750FF9A
:1019000069460888401C088008888542E4DC01A8F4
:1019100000F082FC7FB04EB0F0BD000070B509242D
:101920000546E406012210212046FEF72BFD002289
:1019300001210648FEF726FD2846FFF723FF002277
:1019400010212046FEF71EFD70BD00000014004867
:1019500030B51B4887B04269012149040A434261FE
:1019600042690A400592426949010A43426142695B
:101970000A40059242690A434261406909250840CC
:1019800005901020009003200124ED06039001949F
:1019900069462846FEF74EFC00940A4C69462046EC
:1019A000FEF748FC0220009069462046FEF742FC04
:1019B000002210212846FEF7E5FC07B030BD0000EC
:1019C0000010024000140048F8B500246846047076
:1019D000FFF7BEFF0925ED06012210212846FEF77C
:1019E000D1FC2B4E002202213046FEF7CBFC022018
:1019F000FEF712FC012202213046FEF7C3FC322022
:101A0000FEF70AFC002210212846FEF7BBFC00214D
:101A1000112000F0D3F805213A2000F0CFF82A2059
:101A2000FFF77CFF68460470012100F091F8012166
:101A3000684600F08DF80121684600F089F87F21A2
:101A400068460170012100F083F82B20FFF766FF44
:101A500068460470012100F07BF80121684600F01F
:101A600077F80121684600F073F89F2168460170FD
:101A7000012100F06DF80021132000F09FF80021F3
:101A8000292000F09BF8C021362000F097F8F8BD1F
:101A90000014004810B50023174A002808D05A281F
:101AA00010D0B42816D0FF380F281BD0538004E084
:101AB0005380002901D0C82100E0C021362000F069
:101AC0007DF810BD5A205080002901D0EC21F5E7A7
:101AD000E421F3E7B4205080002901D01C21EDE778
:101AE0001421EBE7FF200F305080002901D038216E
:101AF000E4E73021E2E700001E0000201FB582B0BD
:101B0000684600891C4681186846491E01802A20C3
:101B1000FFF704FF022102A800F01AF8022168462C
:101B200000F016F86846808901196846491E018050
:101B30002B20FFF7F3FE022103A800F009F8022191
:101B4000684600F005F82C20FFF7E8FE06B010BD4F
:101B500070B509260C460546F606012210213046CE
:101B6000FEF710FC012211461248FEF70BFC012C77
:101B700001D0114A11E02878FFF704FE13E08168D4
:101B80008907FCD569780173106881688907FCD5DD
:101B900029780173A41EA4B2AD1C1068002CEED1EC
:101BA00081680906FCD4002210213046FEF7EAFBCA
:101BB00070BD0000001400483400002013B5FFF78A
:101BC000ADFE012101A8FFF7C3FF1CBD10B5FFF753
:101BD000D7FA10BD10B5FFF773FB10BD10B5FFF7B6
:101BE00011FC10BD10B5FFF75FFC10BD10B5FFF77D
:101BF00065FC10BD02E008C8121F08C1002AFAD116
:101C000070477047002001E001C1121F002AFBD17C
:101C10007047000070B50446FF30FF3000220230EC
:101C20000271521EC262204601F0B1F8002801D0B4
:101C3000032070BDFF20FF30005B1049884201D0B7
:101C4000022070BD20463730FEF772FA3621095D5A
:101C5000000208430A4D0002A8420AD02046533031
:101C6000FEF766FA4034A17C000208430002A84255
:101C700001D1002070BD012070BD000055AA0000F8
:101C800000464154F0B50022FF30184BFF30144697
:101C900002300C2555435E59002E0CD00768BE4219
:101CA0000AD1ED186E688768BE4205D12D89C688B5
:101CB000B54204D000E00124521C022AE9D3022AD2
:101CC00002D000290FD105E0002C0AD1022908D04A
:101CD0001220F0BD0C204243D0184089C11FF939B1
:101CE00001D00020F0BD1020F0BD000098000020C1
:101CF00030B50021054B0C460C224A439D588542C5
:101D000000D19C50491C0229F6D330BD9800002018
:101D1000FF3010B5FF300230446A0068241DFF30E8
:101D2000FF3002308278480A1146FEF7D9F902CC1A
:101D3000002904D0884204D3401A241DF7E700206C
:101D400010BD2168081810BDFF30FF300230426915
:101D5000891E921E8A4201D8002070478278806ACC
:101D60004A43101870470000F3B581B0019C0F463C
:101D7000FF34FF340234002906D0019800F031FE10
:101D8000022809D20120FEBDE668002E02D060695B
:101D9000B04207D8012605E0411CF4D061698142B8
:101DA000F1D83E46354660696D1CA84202D802252E
:101DB000022E0BD32946019800F013FE002807D00D
:101DC000411CE0D00128DED0B542ECD10020FEBDA0
:101DD000114A2946019800F0F6FF002808D1002F8B
:101DE0000BD02A463946019800F0EDFF002804D0B8
:101DF00001280DD001252846FEBDE5602069411C63
:101E0000F9D0401E20616079012108436071F2E73A
:101E10000025ED43EFE70000FFFFFF0FF3B581B0B2
:101E200002990C6800E0641C21782F29FBD05C2902
:101E3000F9D0FF30FF30023085690B22202128467F
:101E400000F09EFF0020014608228E469446225C48
:101E5000401C202A3BD92F2A39D05C2A37D02E2A81
:101E600001D0E6450BD36346082B3FD12E2A3DD146
:101E7000082296460B2289069446090EE7E7802A37
:101E800005D303231943254B9A18803A127824A3CB
:101E9000164600E05B1C1F78002F02D0B742F9D134
:101EA00024E01346413B192B02D80223194308E0D2
:101EB0001346613B192B04D8012319433246203ABB
:101EC000D2B27346EA547246521C9646BFE72318B4
:101ED0000298202A036001D8042000E00020724606
:101EE000002A03D02A78E52A02D003E00620FEBDAE
:101EF00005222A706246082A01D18906090E8A073E
:101F0000920F012A01D1102210430907890F0129DC
:101F100001D108210843E8720020FEBD66300008A8
:101F2000222A2B2C3A3B3C3D3E3F5B5D7C7F0000F0
:101F300010B5401E022815D20C210B4A48438318C5
:101F40005989CC1FF93C07D0002901D0491E89B21C
:101F50005981002902D003E00021F9E70021115046
:101F6000002010BD022010BD98000020F8B5C41D4F
:101F7000FF34FA34E6880F46761C3004000C35D066
:101F80002069002832D031076CD1401C2061E16803
:101F9000002924D0374B206832091B5C5B1E1A4293
:101FA00060D100F01EFD0546012823D9681C3BD0F6
:101FB0008521206889000958A9424DD8002F15D0E5
:101FC000E168FFF7D1FE050012D0012D12D0681C88
:101FD0002AD0206800F0FBFF002825D10CE0206803
:101FE000FF30FF3002300089B0423BD80420F8BDFA
:101FF0000720F8BD0220F8BD01225202002120680E
:1020000000F0BEFE29462068FFF79EFE2168FF31E2
:10201000FF3102310027C86210E001210171206800
:1020200000F0D5FF002801D00120F8BD2068FF3066
:10203000FF300230C16A491C7F1CC1622068FF303A
:10204000FF3002308178B942E7D82168FF31FF3193
:102050000231C96AC91BC162E56029462068FFF7E1
:1020600073FE2061E68031072068C90D4018606169
:102070000020F8BD0202000070B50446002100F007
:1020800039F8002814D1E51DFF35FA35296928688B
:1020900000F07DFE00280BD168690078E5280AD0A1
:1020A000002808D001212046FFF760FF0028EDD06E
:1020B00004280AD00AE0FF34FF3402342169206882
:1020C00000F065FE050003D012E0072005460FE092
:1020D00020220021606900F053FE0B22A169606993
:1020E00000F046FE20680121FF30FF300230017110
:1020F000284670BD70B5C41DFF34FA34E180A36872
:102100000D46012B3AD02068FF30FF300230416984
:10211000994233D9002B05D10178032905D1436AAF
:10212000002B02D08078060113E00189A94225D94D
:10213000406A14E000F055FC0346401C1CD0022B02
:102140001CD32068FF30FF3002304069984215D917
:10215000AD1B2068B5421946ECD2FFF7F5FDE360F0
:1021600000280BD029090818206129072068C90D0B
:1021700040186061002070BD012070BD022070BD5C
:1021800010B5094900220B5C002B0AD101220A5428
:102190000A18800040184068127A01681046884783
:1021A0000246104610BD0000B000002030B4054CBF
:1021B00023188000001940681B7A04691846A44659
:1021C00030BC6047B000002030B4054D04462819EB
:1021D000A40064196468007AA468A44630BC60470F
:1021E000B0000020044A1118800080184068097A65
:1021F0004268084610470000B000002030B4054D8A
:1022000004462819A40064196468007AE468A446A6
:1022100030BC6047B000002010B5044600F0DAF989
:1022200000280ED1204600F0FCFE002809D1FF3422
:10223000FF340234A06AFFF77BFE002801D10021A1
:10224000216010BDF7B582B003980090684600F099
:1022500030FC002802DA0B2005B0F0BD104E8500DE
:1022600074590027002C06D02046FFF741FDFF34AB
:10227000FF34023427700298002802D0012149025D
:102280000F547051002802D00498012801D000207A
:10229000E2E7002203A902A800F0F0F9DCE7000061
:1022A00030000020F7B5FFB08FB000280FD0C61D5A
:1022B000FF36D7060021FA36FF0E7A083160520049
:1022C0008FA983A800F0DAF9040004D0BBE009204C
:1022D0007FB012B0F0BD8BA8899003A88F9900F051
:1022E0001DFB889D04000CD1002D03D0780803D07D
:1022F000012102E0062404E0002103A8FFF7C2FC4C
:102300000446F806400F63D0002C1AD0042C12D1DA
:1023100000204F4902E0401C022804D20C22424314
:102320008A58002AF7D1022804D003A8FFF7A4FE98
:10233000044600E0122408200743889D002C0AD0A0
:1023400081E0E87A1121084201D007247BE0780778
:1023500001D5082477E0380749D500F0A8FBA87319
:10236000010AE973010C2974000E68740020E872F8
:1023700028776877A877E8772946839800F002FCE9
:1023800002900021284600F0D0FD83990120FF3102
:10239000FF31023108710298002826D083980299F3
:1023A000FF30FF300230C06A0190839800F08AFD50
:1023B000040048D183990298FF31FF31401E023159
:1023C000C8600199839800F0E2FC04000BD03AE069
:1023D000002C38D1E87AC10601D5042433E0B907CE
:1023E00001D5C007B1D1380701D520200743839814
:1023F000FF30FF300230C06A3562F061780801D0EA
:10240000012100E0002103A800F072FBB062002867
:102410001BD0B7710027F7712946839800F0B2FBF3
:10242000306128461D30FDF783FE297FB76000022A
:10243000B76108437762F06083983060FF30FF3007
:102440000230C088B080204642E70224FBE700004B
:1024500098000020FFB589B002910C98002101601E
:102460001546099800F0DDFD002812D1099CFF34C3
:10247000FF340234E07900280BD1A079C00707D0DF
:10248000E168A0680127081A854200D9054699E04D
:1024900007200DB0F0BDA168C80578D14C4B20686D
:1024A0004A0A1B5C5B1E1A401606360E12D1002922
:1024B00006D0626A002A05D00998FFF729FC04E0DB
:1024C000206902E0616900F08CFA022820D3411CE7
:1024D00057D0606161692068FFF736FC002817D08B
:1024E00080190090680A049029D021683218FF31C1
:1024F000FF3102318878824201D9801B04904878EC
:10250000049B009A0299FFF75FFE002839D102E090
:102510000220E071BDE7A07940060DD5A1690098C1
:10252000081A0499884207D2410202980122081829
:102530005202099900F01CFC0498460236E0A26998
:102540000098824221D0A07940060ED52068012350
:10255000FF30FF30023040780999FFF74FFE002826
:102560000FD1A079BF210840A07120680123FF305E
:10257000FF3002304078009A0999FFF725FE0028C5
:1025800003D0E771012084E701E00098A061208971
:102590000121C005C00D49020E1AAE4200D92E46D7
:1025A000099932464118029800F0E2FB029880191E
:1025B0000290A0688019A0600C98006881190C989E
:1025C000AD1B0160002D00D065E7002061E7000031
:1025D0000202000070B5054600F023FD002814D16A
:1025E000EC1DFF34FA34A1798A060ED5480611D5C0
:1025F00020680123FF30FF30023040782946A2696D
:10260000FFF7FCFD002801D0012070BDA079BF219B
:102610000840A071E169206800F0B9FB0028F4D1FE
:10262000256A2021E87A0843E872207B2877A08970
:10263000000A6877E068000CA877E068000EE87789
:102640002846216900F071FC00F031FAA875010AF2
:10265000E975010C2976000E68760020A874E874EC
:10266000A079DF210840A07120680121FF30FF30F0
:1026700002300171206800F060FC70BDF0B50546C5
:102680008FB0002028601746084600F012FA0600B6
:1026900002D50B200FB0F0BD9A49B0000C58002CA9
:1026A00015D02C60E51DFF35FA352878002804D0B8
:1026B0006878FFF797FDC1070BD000202870F0B2B3
:1026C0006870FFF75DFDC10709D00320E2E70C2029
:1026D000E0E7002F01D0400705D40020DAE7002F03
:1026E00003D0400701D50A20D4E700263146204612
:1026F000FFF790FA012826D130010719FF37BF37BD
:102700003879002807D038460930FDF711FD01025D
:10271000387A014300E00021B20009A8761C8150FC
:10272000042EE9D30027B90009A84658002E06D088
:1027300031462046FFF76EFA002801D10AE0022058
:102740007F1C042FEFD3032802D000287CD101E0A6
:1027500001209FE7E01C0690217BE27A08021043EB
:10276000C11FFF39FA396FD1E08A002807D120460E
:102770002530FDF7DDFC2421095D00020843A86136
:102780000D90217CE970012901D002295CD14143DF
:102790000491677BAF70002F56D0781E074253D14B
:1027A000A17C627C080210432881089000074BD16D
:1027B0000698417C027C0802104307D12046213054
:1027C000FDF7B6FC2021095D00020843E189039171
:1027D000002939D0049A8A180899090951180691D4
:1027E000884231D3401A3946FDF77AFC00282BD0B5
:1027F00045490127884200D302274449884200D333
:102800000327801C68610E90EE61039830182862DF
:1028100006997118A962032F18D00899002913D0BE
:102820000499401868620E98022F1ED0410040188B
:1028300041080E98C007C00F0818FF30FF30013064
:102840000D99400A814212D20D2023E708980028F2
:10285000FAD120462D30FDF76BFC2C21095D0002DA
:10286000084368620E988000E7E74000E5E7002033
:10287000C0432861E86080206871032F36D1208E24
:10288000012833D1711C204600F081FA00282DD197
:102890006871FF20FF30005B1D49884226D1601C13
:1028A000FDF746FC2178000208431A4988421DD1F1
:1028B0002046FF30E630FDF73BFC2646FF36E1368A
:1028C000317900020843144988420FD1304609305B
:1028D000FDF72EFC317A00020843286130460D30A6
:1028E000FDF726FC317B00020843E86005482F70A5
:1028F000001F0188491C0180E9802046FFF7F8F994
:10290000EBE6000030000020F60F0000F6FF0000AC
:1029100055AA00005252614172724161F3B581B013
:10292000029801782F2901D05C2901D1401C029026
:10293000019C0025FF34FF340234A5600298007822
:10294000202805D200210198FFF7D4FB6561FEBD68
:1029500002A90198FFF762FA0028F8D10198002136
:102960000090FFF7C7FB002826D1009DFF35FF35FB
:1029700002352969286800F00AFA00281CD1696923
:102980000A78002A05D0CA7A12070FD40A26AA6943
:1029900003E0042010E0761E06D30B781778491C5C
:1029A000521CDB1BF7D001E0002B05D00021009862
:1029B000FFF7DCFA0028DCD0A1690028C97A05D02D
:1029C0000428C4D14907C2D40520FEBD4907FCD460
:1029D0006169C87AC006F7D5206800F0D3F8A06016
:1029E000B6E7F0B585B00C46074602290ED3FE1DAA
:1029F000FF36FA367069A04208D900253078ED43D9
:102A0000012807D002282ED003283CD001252846D3
:102A100005B0F0BD600800190090316A400A09183D
:102A2000384600F0B4F90028F1D10098C005C00D77
:102A3000385C03900098401C0090316A400A0918E5
:102A4000384600F0A4F90028E1D100980399C005A8
:102A5000C00D385C00020843E10701D00509D6E744
:102A600005052D0DD3E7306A210A4118384600F0DC
:102A70008EF90028CBD12006C00DC019417800780E
:102A80000D020543C3E7306AE1094118384600F0FA
:102A90007EF90028BBD16006C00DC419601CFDF78B
:102AA00047FB21780002084305012D09AFE700200C
:102AB000704710B5044600202268C043002A13D096
:102AC000114600E0491C0B78212B0ED33A2BF9D18B
:102AD0001378521C303B0A2B06D28A4204D1002BB9
:102AE00002D1491C1846216010BD002010BD000015
:102AF000F0B5C31D0022FF33FA3321481C680C25B2
:102B000055434659A64208D12D186E689F68BE42AB
:102B100003D12D89DE88B54202D0521C022AEED3A1
:102B2000022A15D1002202E0521C022A04D20C25EE
:102B300055434559002DF7D1022A11D00C25554394
:102B400044512C189E686660DB88238100236381D2
:102B5000002907D00C21514309184989002907D0C1
:102B60000020F0BD0C21514309184989491C01E09E
:102B7000FF2101310C23534318184181501CF0BD33
:102B8000980000200246FF32C87EFF328B7E023260
:102B9000000212781843032A05D14A7D0B7D1102E9
:102BA0001943090408437047FFB093B0FDF7FEFBDB
:102BB000FEF71FFE14216846FDF7AFFA534842693D
:102BC000012149040A434261406909260840F6068A
:102BD0000590002202213046FDF7D4FB0024012598
:102BE00001946946304600950294FDF723FB0220CC
:102BF000009002946946019503943046FDF71AFB54
:102C0000FEF79EF9FEF78EF9FEF7DEFE0121B420F5
:102C1000FEF740FF01223EA106A8FFF713FB0028A4
:102C200001D0FDF7A9FAFF24F534650039A0002191
:102C30000090A02380220846FEF738FE2046FDF7CC
:102C4000EBFA36A000210090A02380220846FEF770
:102C50002DFE2046FDF7E0FA32A000210090A023CF
:102C600080220846FEF722FE2046FDF7D5FA2FA067
:102C700000210090A02380220846FEF717FE204680
:102C8000FDF7CAFA2CA000210090A023802208465C
:102C9000FEF70CFE2046FDF7BFFA2AA000210090A7
:102CA000A02380220846FEF701FE2046FDF7B4FA75
:102CB00026A000210090A02380220846FEF7F6FD02
:102CC0002046FDF7A9FA23A000210090A02380222E
:102CD0000846FEF7EBFD2046FDF79EFA1FA00021F7
:102CE0000090A02380220846FEF7E0FD2046FDF775
:102CF00093FA1CA000210090A02380220846FEF732
:102D0000D5FD2846FDF788FA90E700000010024044
:102D10000000000070312E62696E000070322E6279
:102D2000696E000070332E62696E00002F63312FD0
:102D300063312E62696E00002F63322F63322E6280
:102D4000696E000063332E62696E000063342E6288
:102D5000696E000063352E62696E00006B68312E6B
:102D600062696E00636174312E62696E000000005A
:102D700003E00B780370401C491C521EF9D27047C7
:102D8000C9B201E00170401C521EFBD27047F8B579
:102D9000C41DFF340746FA34E06A0E460025B042EF
:102DA0000FD0384600F013F905000AD160780123EE
:102DB00032463946FFF708FA002801D06E1E012579
:102DC000E6622846F8BDF7B582B017460C460229E0
:102DD0000DD3029DFF35FF3502356869A04206D943
:102DE0002878012807D002283FD003284DD002269A
:102DF000304605B0F0BD600800190090296A400A0D
:102E000009180298FFF7C3FF0600F1D10098C10529
:102E10000298C90D08180099491C0091E10705D0D6
:102E200001780907090F3A01114300E039460170A2
:102E3000012028710098296A400A09180298FFF7B2
:102E4000A6FF0600D4D10098C1050298C90D081844
:102E5000E10702D03905090E05E001783A050909B4
:102E60000901120F1143017029E0286A210A411853
:102E70000298FFF78CFF0600BAD12006C10D029818
:102E800008180770390A417019E0286AE1094118E9
:102E90000298FFF77CFF0600AAD16006C10D0298D8
:102EA0000C18601CFDF744F90002000F00073843BE
:102EB0002070010A6170010CA170000EE070012009
:102EC000287195E7F3B581B00F4602291AD3019D09
:102ED000FF35FF3502356869B84213D900261FE077
:102EE00039460198FFF77DFD04001CD0012C09D064
:102EF000601C09D0002239460198FFF764FF0600E4
:102F000011D103E002260EE001260CE02869411CE5
:102F100005D0401C28616879012108436871274663
:102F20006869B842DCD83046FEBD81760A0AC276AE
:102F30000A0C0275090E4175704770B5044600F021
:102F400046F8060041D1E51DFF35FA3528780328FB
:102F500033D16879012830D1420200212046FFF7A1
:102F60000FFF2846552120388177AA21C1775221A9
:102F7000217061706121A1704122E270722303719E
:102F800043718271C171296901720A0A42720A0C85
:102F90008272090EC172E96801730A0A42730A0C4F
:102FA0008273090EC173EA690123521CEA626878D0
:102FB0002146FFF723F90020687100226878114646
:102FC000FFF7F4F8002800D00126304670BDF1B5B7
:102FD000009C0027FF34FF340234207900281ED0E3
:102FE000E56A607801232A460099FFF707F900286F
:102FF00001D0012713E000202071206AA169281A5E
:1030000088420CD2E67808E0A0690123451960786F
:103010002A460099FFF7F2F8761E022EF4D23846BF
:10302000F8BD10B5002814D0FF30FF300230016821
:1030300000290ED0FF31FF3102310A78002A08D072
:10304000CA888088824204D14878FFF7CBF8C0074D
:1030500000D0092010BD00000000000000000102A7
:10306000030406070809809A90B68EB78F80D2D3E2
:10307000D4D8D7DE8E8F909292E299E3EAEB5999F9
:103080009A9D9C9D9E9FB5D6E0E9A5A5A6A7A8A957
:10309000AAABAC21AEAFB0B1B2B3B4B5B6B7B8B9A4
:1030A000BABBBCBDBEBFC0C1C2C3C4C5C7C7C8C907
:1030B000CACBCCCDCECFD0D1D2D3D4D5D6D7D8D9F8
:1030C000DADBDCDDDEDFE0E1E2E3E5E5E6E7E7E9E8
:1030D000EAEBEDEDEEEFF0F1F2F3F4F5F6F7F8F9D7
:1030E000FAFBFCFDFEFF000400020001800040002E
:1030F00020001000080004000200000000800040D2
:10310000002000100008004000200010000800040B
:1031100000020000343100080000002034000000EC
:10312000F41B00086831000834000020CC0E0000B9
:10313000041C0008CD1B0008E51B0008DD1B00086F
:10314000ED1B0008D51B0008000000000000000176
:1031500000000000000000000000000000127A00E3
:08316000000000000000000067
:04000005080000B13E
:00000001FF
